:1000000071C0000079C0000077C0000075C000001A
:1000100073C0000071C000006FC000006DC0000020
:100020006BC0000069C0000067C0000065C0000030
:1000300063C0000061C000005FC000005DC0000040
:100040005BC0000059C0000057C0000055C0000050
:10005000DBC0000051C000004FC000004DC00000D8
:100060004BC0000049C0000047C0000045C0000070
:1000700043C0000041C000003FC000003DC0000080
:100080003BC0000039C0000037C00000D9C00000EC
:1000900033C0000031C000002FC000002DC00000A0
:1000A0002BC0000029C0000027C0000025C00000B0
:1000B00023C00000E1C000001FC000001DC0000000
:1000C0001BC0000019C0000017C0000015C00000D0
:1000D00013C0000011C000000FC000000DC00000E0
:1000E0000BC0000011241FBECFEFD1E2DEBFCDBF99
:1000F00000E00CBF6FD0DBC083CF92E094BD87BD22
:1001000095BB089516BC82E085BB81E085BDA99BA7
:10011000FECF15BC08958FEF81B980EE87B90895A1
:100120008FEFEBDF88B1806488B9ECDFEBDFEADFCB
:1001300088B18F7B88B9E6DFE5DFE4CF0895CF9300
:10014000C82F8FEFDADF88B1806888B98C2F807F65
:1001500082B9E6DFD7DFD6DFD5DF20E1C29FC0015D
:10016000112482B9DDDFCEDFCDDFCCDFCF91089562
:10017000CF93C82F8FEFC1DF88B18F7788B98C2FCD
:10018000807F82B9CDDFBEDFBDDFBCDF20E1C29F53
:10019000C001112482B9C4DFB5DFB4DFB3DFCF9172
:1001A000089581E0E5DFAEDFADDFACCF089588B123
:1001B0008F7D88B988B18F7788B988E282B9B0DF3E
:1001C000A1DFA0DF9FDF86E0D3DF84E1D1DF8EE017
:1001D000CFCF08958FEF84B985B99DDFE8DFE1DFE8
:1001E00003D080E3ACDFFFCF1092200184E0809346
:1001F00021018CED9BE0909325018093240181E007
:100200008ABBD09BFECF08951F920F920FB60F921C
:1002100011242F933F938F931092800081E080935D
:10022000810020EF38ED309385002093840086BB59
:100230008F913F912F910F900FBE0F901F901895A7
:100240001F920F920FB60F9211242F933F938F930B
:100250001092900081E08093910020EE31EB30937A
:1002600095002093940088BB8F913F912F910F9020
:100270000FBE0F901F9018951F920F920FB60F92FE
:1002800011248F939F931092A00083E08093A1008C
:100290008CED9BE09093A5008093A40081E089BB46
:1002A0009F918F910F900FBE0F901F901895F8940B
:0202B000FFCF7E
:00000001FF
