:1000000071C000008EC000008CC000008AC00000DB
:1000100088C0000086C0000084C0000082C00000CC
:1000200080C000007EC000007CC000008FC10000C6
:1000300078C0000076C0000074C0000072C00000EC
:1000400070C000006EC000006CC000006AC00000FC
:10005000ABC1000066C0000064C0000062C00000C8
:1000600060C000005EC000005CC000005AC000001C
:1000700058C0000056C0000054C0000052C000002C
:1000800050C000004EC000004CC00000A9C10000DC
:1000900048C0000046C0000044C0000042C000004C
:1000A00040C000003EC000003CC000003AC000005C
:1000B00038C00000B1C1000034C0000032C00000F0
:1000C00030C000002EC000002CC000002AC000007C
:1000D00028C0000026C0000024C0000022C000008C
:1000E00020C0000011241FBECFEFD1E2DEBFCDBF84
:1000F00000E00CBF12E0A0E0B2E0E2E9F4E000E0D2
:100100000BBF02C007900D92A031B107D9F722E0D2
:10011000A0E1B2E001C01D92A331B207E1F7F1D036
:10012000B6C16ECF1F93CF93DF93182FEB018FE7EC
:10013000809308019CD18091060190E0012E02C0BD
:10014000959587950A94E2F780FD04C0C050DE4F74
:10015000888139C08FEB8093080189D18091060195
:1001600090E0012E02C0959587950A94E2F780FDF4
:1001700004C0C050DE4F8C8126C08FED80930801F3
:1001800076D18091060190E0012E02C09595879569
:100190000A94E2F780FD04C0C050DE4F888513C08A
:1001A0008FEE8093080163D18091060190E002C038
:1001B000959587951A95E2F780FD04C0C050DE4FF3
:1001C0008C8501C08BE4DF91CF911F91089587301A
:1001D00031F460E070E083E090E0A4CF08958B30CC
:1001E00031F461E070E082E090E09CCF08958D30C2
:1001F00031F462E070E081E090E094CF08958E30B9
:1002000031F463E070E080E090E08CCF08958BE4FF
:1002100008958FE0809308012AD1809106018F30E4
:10022000E1F7809106018F30E1F380910601809320
:100230001202CDCF089592E094BD87BD95BB08957D
:1002400016BC82E085BB81E085BDA99BFECF15BCB5
:1002500008958FEF81B980EE87B908958FEFEBDFB6
:1002600088B1806488B9ECDF88B18F7B88B9E8CF2A
:100270000895CF93C82F8FEFDEDF88B1806888B9EB
:100280008C2F807F82B9EADFDBDFDADFD9DF20E184
:10029000C29FC001112482B9E1DFD2DFD1DFD0DFFC
:1002A000CF910895CF93C82F8FEFC5DF88B18F7797
:1002B00088B98C2F807F82B9D1DFC2DFC1DFC0DF78
:1002C00020E1C29FC001112482B9C8DFB9DFB8DFC5
:1002D000B7DFCF91089581E0E5DFB2DFB1DFB0CFC6
:1002E000089588B18F7D88B988B18F7788B988E201
:1002F00082B9B4DF86E0D6DF84E1D4DF8EE0D2CFEE
:10030000089580EF809307018FE08093080178942F
:10031000E8E6F0E0808184608083EDE6F0E08081B3
:100320008160808396DFDDDFD6DF91D080E3A1DFBF
:1003300080ECB8DF81E49DDF81E29BDF6ADF8093A0
:1003400011028133D9F78AE294DFF8CF1F920F921E
:100350000FB60F9211240BB60F922F933F934F932A
:100360005F936F937F938F939F93AF93BF93EF931D
:10037000FF934FDF80931102813409F47ADF84E028
:100380008BBBFF91EF91BF91AF919F918F917F9127
:100390006F915F914F913F912F910F900BBE0F90F6
:1003A0000FBE0F901F9018951F920F920FB60F92CD
:1003B00011242F933F938F931092800081E08093BC
:1003C000810020EF38ED309385002093840086BBB8
:1003D0008F913F912F910F900FBE0F901F90189506
:1003E0001F920F920FB60F9211242F933F938F936A
:1003F0001092900081E08093910020EE31EB3093D9
:1004000095002093940088BB8F913F912F910F907E
:100410000FBE0F901F9018951F920F920FB60F925C
:1004200011248F939F931092A00083E08093A100EA
:100430008CED9BE09093A5008093A40081E089BBA4
:100440009F918F910F900FBE0F901F901895109253
:10045000200184E0809321018CED9BE090932501A5
:100460008093240181E08ABBD09BFECF0895109237
:10047000200184E08093210180E09EEF909325018C
:100480008093240181E08ABBD09BFECF0895F8942D
:02049000FFCF9C
:100492003132334134353642373839432A302344F6
:00000001FF
