:1000000071C000008FC000008DC000008BC00000D8
:1000100089C0000087C0000085C0000083C00000C8
:1000200081C000007FC000007DC000008AC50000C4
:1000300079C0000077C0000075C0000073C00000E8
:1000400071C000006FC000006DC000006BC00000F8
:1000500013C6000067C0000065C0000063C0000058
:1000600061C0000086C600005DC000005BC00000EB
:1000700059C0000057C0000055C0000053C0000028
:1000800051C000004FC000004DC0000035C6000048
:1000900049C0000047C0000045C0000043C0000048
:1000A00041C000003FC000003DC000003BC0000058
:1000B00039C00000A9C6000035C0000033C00000F0
:1000C00031C000002FC000002DC000002BC0000078
:1000D00029C0000027C0000025C0000023C0000088
:1000E00021C0000011241FBECFEFD1E2DEBFCDBF83
:1000F00000E00CBF14E0A0E0B2E0E8ECF1E100E0C9
:100100000BBF02C007900D92A03CB107D9F724E0C5
:10011000A0ECB4E001C01D92A63EB207E1F775D491
:100120000C94E2086DCFCF92DF92EF92FF92C12C38
:10013000D12C760111C08091C204882341F08091B6
:10014000C104882321F0F6D685B1805885B98FEF98
:10015000C81AD80AE80AF80A8091000290910102B0
:10016000A0910202B0910302880F991FAA1FBB1F22
:10017000880F991FAA1FBB1FC816D906EA06FB06DF
:10018000D4F2FF90EF90DF90CF900895CF92DF925E
:10019000EF92FF923AC08091C204882349F0809187
:1001A000C104882329F0B7D695B180E4892785B9A1
:1001B0008FEFC81AD80AE80AF80A03C0C12CD12C5C
:1001C000760180E9C81681E0D806E104F1041CF349
:1001D000C12CD12C760112C08091C204882349F031
:1001E0008091C104882329F087D695B180E48927BE
:1001F00085B98FEFC81AD80AE80AF80A80E2C8164B
:1002000083E0D806E104F1043CF38091C204882322
:1002100021F08091C1048111D1CF15B8FF90EF90EA
:10022000DF90CF90089580E692E096D282EE94E03F
:1002300093D2B8D2EAEDF4E04481558162817381B2
:1002400080819181CCD296D695D694D6C3D292D6BF
:1002500091D61092C50481E080936D00A9D207D297
:100260008093C5048A3249F48EE692E051D08DED38
:1002700092E04ED080E03DD013C0833281F71092DF
:10028000C5049FD2F4D18093C5048A3221F482E759
:1002900092E03ED005C08332A9F786E792E038D0DD
:1002A00056D38FE080936D000895E1ECF0E08081FB
:1002B000806880830895E1ECF0E080818F7780830F
:1002C000089583E390E09093C5008093C400E1EC2F
:1002D000F0E080818861808386E08093C200E5CF72
:1002E00008958091C000807208958091C000807848
:1002F0000895CF93C82FF5DF8823E9F3C093C60094
:10030000CF910895F2DF8823E9F38091C600089524
:100310000F931F93CF938C01C0E002C0EADFCF5F41
:10032000F801EC0FF11D80818111F8CFCF911F9161
:100330000F9108950F931F93CF93C82F8A30B0F079
:100340008DECC89F812D1124869586958695082F62
:1003500010E0805DCFD126EF2003C001219F900DDA
:1003600011248C0F911D805DC5D105C080E3C2D1E1
:1003700080E38C0FBFD1CF911F910F910895CF9340
:1003800048D21092100281E080936D00F2C06FD1CC
:100390008093C5048A3209F088C0A0D21092C504A7
:1003A00066D18093C5048A32F1F4A1D21092C504BB
:1003B0005ED18093C5048A3281F468E472E08AE2F7
:1003C00092E0F9D66EE472E080E392E0F4D664E560
:1003D00072E086E392E0EFD602C0833249F719D289
:1003E0001092C504C6C08332D9F64AD21092C50411
:1003F0003ED18093C5049FEC980F923010F08A3262
:10040000B9F71092C30423C084D2E5D5BC018AE0B9
:1004100092E0D1D66AE772E08AE092E0C3D6892BF7
:10042000A1F07DD2D8D5BC0184E092E0C4D664E0CE
:1004300072E08AE092E0B6D6892B21F481E08093C5
:10044000C30405C05DD296D502C015D293D5809164
:10045000C3048823C9F2C091C504C13329F46AE0FA
:1004600072E08AE292E0A7D6C23329F46AE072E031
:1004700080E392E0A0D6CA3229F46AE072E086E313
:1004800092E099D680E090E005C0FC01EF52FB4F6E
:100490001082019685309105C4F31092D804109211
:1004A000D704B7D11092C50464C0833209F061C08B
:1004B000B9D11092C504DBD08093C5048A32E9F427
:1004C000E8D11092C504D3D08093C504813341F4A0
:1004D00081E090911202911180E08093120209C094
:1004E000823389F781E090911102911180E080932D
:1004F00011028FD11092C5043CC08332E1F69BD12A
:100500001092C504B4D08093C5048A32B9F481E056
:1005100090E09093C7048093C60480E892E0F8DEF0
:1005200009D54091CA0450E06091CB0470E08091FD
:10053000CC0490E054D11ED51DD518C0833211F7DC
:1005400083D11092C50493D08093C5048A3241F4BC
:1005500081E09091C404911180E08093C40406C0AE
:10056000833289F781E08093100202D152D1109238
:10057000C50480911002882309F409CF1092D80491
:100580001092D7048FE080936D00CF9108959FE77C
:10059000909308012091060130E0082E02C03595A5
:1005A00027950A94E2F720FD05C0FB01ED5EFD4FA3
:1005B000808108959FEB909308012091060130E01F
:1005C000082E02C0359527950A94E2F720FD05C054
:1005D000FB01ED5EFD4F848108959FED909308012E
:1005E0002091060130E0082E02C0359527950A9427
:1005F000E2F720FD05C0FB01ED5EFD4F808508950B
:100600009FEE909308012091060130E0A90102C0FD
:10061000559547958A95E2F740FD05C0FB01ED5ED3
:10062000FD4F8485089580E00895873031F460E0BF
:1006300070E083E090E0ABCF08958B3031F461E05F
:1006400070E082E090E0A3CF08958D3031F462E055
:1006500070E081E090E09BCF08958E3031F463E04C
:1006600070E080E090E093CF089580E00895CF930C
:10067000DF938FE080930801809106018F30E1F3D2
:10068000C6E0D1E088818093E404CFDF8093D90471
:1006900061D48FE08093080188818093E404C5DFF2
:1006A0009091D904891390E0892FDF91CF9108951B
:1006B00092E094BD87BD95BB089516BC82E085BBD2
:1006C00081E085BDA99BFECF15BC08958FEF81B950
:1006D00080EE87B908958FEFEBDF88B1806488B929
:1006E000ECDFEBDFEADF88B18F7B88B9E6DFE5DF9F
:1006F000E4CF0895CF93C82F8FEFDADF88B18068F9
:1007000088B98C2F807F82B9E6DFD7DFD6DFD5DFCF
:1007100020E1C29FC001112482B9DDDFCEDFCDDF31
:10072000CCDFCF910895CF93C82F8FEFC1DF88B171
:100730008F7788B98C2F807F82B9CDDFBEDFBDDF98
:10074000BCDF20E1C29FC001112482B9C4DFB5DF44
:10075000B4DFB3DFCF910895CF93DF93EC0102C0F4
:10076000C9DF219688818111FBCFDF91CF91089558
:1007700081E0D9DFA2DFA1DFA0DFFCC3089588B14B
:100780008F7D88B988B18F7788B988E282B9A3DF75
:1007900094DF93DF92DF86E0C6DF84E1C4DF8EE082
:1007A000C2CF089580ECBFDF88DF87DF86CF089552
:1007B000DFDF83E892E0D0DFF5DF84E992E0CCCFA1
:1007C0000895D6DF84EA92E0C7DFECDF84EB92E0A5
:1007D000C3CF0895CDDF8FEB92E0BECF08951F9376
:1007E000CF93DF93182FD62FC42FC2DF80ED92E076
:1007F000B3DF812F9FDD8DEE93E0AEDF8D2F9ADD8D
:100800008DEE93E0A9DF8C2F95DDDF91CF911F91C5
:100810000895AEDF87ED92E09FDFC4DF80EE92E0C7
:100820009BCF0895A5DF8EEE92E096DFBBDF80EED2
:1008300092E092CF08959CDF8FEF92E08DDFB2DFE0
:1008400080EE92E089CF089593DF8DE093E084DF1E
:100850008091C404811104C080E193E07DDF03C076
:1008600084E193E079DF88E193E076DF9BDF82E249
:1008700093E072CF08957CDF89E293E06DCF089515
:1008800077DF88E393E068DF8DDF89E493E064CF6E
:1008900008956EDF81E593E05FDF809112028111A0
:1008A00004C080E193E058DF03C084E193E054DFAB
:1008B00086E593E051DF76DF80E693E04DDF8091BF
:1008C0001102811104C080E193E046DF03C084E19E
:1008D00093E042DF85E693E03FCF089549DF81E76B
:1008E00093E03ADF5FDF80E893E036CF089540DFA2
:1008F00080E993E031DF56DF80EA93E02DCF089561
:1009000037DF81EB93E028DF4DDF82EC93E024CFEB
:1009100008952EDF83ED93E01FDF44CF089528DF95
:100920008FED93E019DF3ECF089522DF8FEE93E045
:1009300013DF38DF8FEF93E00FCF089519DF86E0E4
:1009400094E00ADF2FDF8FEF93E006CF089510DFEA
:1009500087E194E001DF26DF88EE93E0FDCE089585
:1009600007DF88E294E0F8DE1DDF88EE93E0F4CE46
:100970000895FEDE80E394E0EFCE0895F9DE8BE388
:1009800094E0EACE0895F4DE8CE494E0E5DE0ADF3C
:1009900088EE93E0E1CE0895EBDE8CE594E0DCCECA
:1009A000089500DF8AE694E0D7CE0895E1DE88E777
:1009B00094E0D2DEF7DE88EE93E0CECE089580910B
:1009C000C404813071F48091CB04863050F48111DD
:1009D00008C08091CA04811104C081E08093C204E0
:1009E000A4DF8091C404813079F48091CB048630F7
:1009F00058F0883148F4863039F48091CA04811166
:100A000003C01092C2049ACF08951092C2041092AB
:100A1000E5048FEF84B915B880EF809307019FE05C
:100A200090930801E8E6F0E08081846080839093F1
:100A30006D00789446DC39DCADD252D247DE9FDEC1
:100A400086DF8091C204882309F46CC08091C104C0
:100A5000882309F467C08091E3048093E204EAEDFF
:100A6000F4E08091CC0490E0918380838091CB046A
:100A700090E0938382838091CA0490E0958384837D
:100A800052DB8091C204882351F18091C1048823F4
:100A900031F1109223028091E204813429F48DED2A
:100AA00092E036DC81E025DC8091E204823429F496
:100AB0008DED92E02DDC82E01CDC8091E204833439
:100AC00029F48DED92E024DC84E013DC8091E204D3
:100AD000843429F48DED92E01BDC88E00ADC8091FF
:100AE000C2048823E1F08091C1048823C1F0E3DBD4
:100AF0004DDB6CE372E081ED94E054D3892B11F06F
:100B000092DB01C024DFE1ECF0E080818F7E808306
:100B1000808180618083C9DB8FE08093080181E060
:100B2000809323028091E504813009F08ACF27DC8D
:100B30008FE080936D00809308011092E50407DF39
:100B400080CF1F920F920FB60F9211240BB60F9207
:100B50002F933F934F935F936F937F938F939F93C5
:100B6000AF93BF93EF93FF9315B88091C0048111A9
:100B70006BC081E08093C0047ADD8093E3049091A0
:100B8000C204992369F18154843020F4E9DE81E0C4
:100B90008093C1048091E30490ED980F9A3008F09F
:100BA00051C02091D7043091D804253031050CF480
:100BB000FFD18091D7049091D804059709F042C0E5
:100BC000A7D2019709F03EC01092C2041092C1044E
:100BD000D0DED0D1809123028823A1F1B8DE32C0CB
:100BE00090ED980F9A3070F52091D7043091D80489
:100BF000253031050CF4DCD18091D7049091D804D4
:100C0000059701F585D2813099F465E874E080910B
:100C1000E0049091E104C6D2892B51F01092C104F6
:100C200085E08093810081E080936F00A7DE0AC099
:100C300065E874E08091E0049091E104B3D2892BDF
:100C400009F485DE87D105C01092C0048FE080933F
:100C50000801FF91EF91BF91AF919F918F917F918B
:100C60006F915F914F913F912F910F900BBE0F901D
:100C70000FBE0F901F9018951F920F920FB60F92F4
:100C800011240BB60F922F933F934F935F936F9363
:100C90007F938F939F93AF93BF93EF93FF93809135
:100CA000CF049091D0048530910571F47FDE81E00E
:100CB0008093C2041092810010926F0086BB109244
:100CC000D0041092CF0405C001969093D004809375
:100CD000CF04FF91EF91BF91AF919F918F917F9141
:100CE0006F915F914F913F912F910F900BBE0F909D
:100CF0000FBE0F901F9018951F920F920FB60F9274
:100D000011240BB60F922F933F934F935F936F93E2
:100D10007F938F939F93AF93BF93EF93FF938091B4
:100D2000C8049091C9048D30910559F41092C904FA
:100D30001092C8048091CA048F5F8093CA04ACD01B
:100D400005C001969093C9048093C804FF91EF9168
:100D5000BF91AF919F918F917F916F915F914F91D3
:100D60003F912F910F900BBE0F900FBE0F901F90D1
:100D700018951F920F920FB60F9211240BB60F9277
:100D80001F932F933F934F935F936F937F938F9313
:100D90009F93AF93BF93CF93DF93EF93FF93B2DA19
:100DA0008335E9F38834D1F4ADDA182FABDAD82FD4
:100DB000A9DAC82F63D01093CC04D093CB04C0938E
:100DC000CA048091C6049091C704892B19F480E865
:100DD00092E09EDA1092C7041092C604FF91EF9140
:100DE000DF91CF91BF91AF919F918F917F916F9143
:100DF0005F914F913F912F911F910F900BBE0F90DC
:100E00000FBE0F901F9018951F920F920FB60F9262
:100E100011240BB60F922F933F934F935F936F93D1
:100E20007F938F939F93AF93BF93EF93FF938091A3
:100E3000CD049091CE048330910541F41092CE04FC
:100E40001092CD048EEA93E063DA05C00196909388
:100E5000CE048093CD04FF91EF91BF91AF919F910C
:100E60008F917F916F915F914F913F912F910F9053
:100E70000BBE0F900FBE0F901F9018957894109294
:100E8000900085E08093910010929500109294005C
:100E900081E08093710008958091CA048C3339F405
:100EA0008091CB048F5F8093CB041092CA04809111
:100EB000CB04883149F48091CC048F5F8093CC04BB
:100EC0001092CB041092CA048091CC04803231F489
:100ED0001092CC041092CB041092CA0470CD0895E5
:100EE000789410928000109285001092840081E026
:100EF00080936F0086BB08951092200181E080935B
:100F0000210120EF38ED30932501209324018ABB85
:100F1000D09BFECF08951092200181E080932101A3
:100F200020EE31EB30932501209324018ABBD09B26
:100F3000FECF08951092200183E0809321018CED73
:100F40009BE0909325018093240181E08ABBD09B94
:100F5000FECF08951092200183E08093210180EB61
:100F60009CE3909325018093240181E08ABBD09B70
:100F7000FECF08951092200184E0809321018CED32
:100F80009BE0909325018093240181E08ABBD09B54
:100F9000FECF089578941092A00085E08093A10080
:100FA0001092A5001092A40081E080937200089531
:100FB000E091D704F091D804EF52FB4F80838AE28E
:100FC00099DB8091D7049091D80401969093D8042E
:100FD0008093D704089581E080936D0080E090E0D5
:100FE00005C0FC01EF52FB4F108201968530910540
:100FF000C4F31092D8041092D70411C005977CF462
:1010000036DB8093E304A6DFA5DF8FE08093080141
:101010008091E30490ED980F9A3008F4C9DF809135
:10102000D7049091D8048530910544F366E372E0CB
:1010300081ED94E0B7D0892BF9F064E272E081EDA4
:1010400094E0B0D0892BD9F06CE372E081ED94E0AC
:10105000A9D0892BB9F06AE272E081ED94E0A2D0C8
:10106000892B99F060E372E081ED94E09BD0892BAD
:1010700079F48AE792E008958AE792E008958AE792
:1010800092E008958AE792E008958AE792E0089551
:1010900081ED94E008956AE272E081ED94E082D0FF
:1010A000892B21F480911202811123C060E372E048
:1010B00081ED94E077D0892B21F480911102811188
:1010C0001BC066E372E081ED94E06CD0892BB9F02F
:1010D00064E272E081ED94E065D0892B99F06CE3D5
:1010E00072E081ED94E05ED0892B79F483EA94E09C
:1010F00008958DE894E0089586E994E008958FE9D5
:1011000094E0089585E894E008958BEA94E00895CA
:10111000CF93DF93C0DF9093E1048093E0046BEA08
:1011200074E040D0EC01892B39F422DB1092D80412
:101130001092D70428DC32C01BDB1092D804109226
:10114000D7042ADC17DF65E874E08091E004909111
:10115000E10428D0892B19F48BEB94E0D9D863EA09
:1011600074E08091E0049091E1041CD0892B19F483
:1011700082E792E0CDD86FE974E08091E00490912D
:10118000E10410D0892B41F40CDCF4DE81E0809383
:10119000E504C2E0D0E002C0C1E0D0E0CE01DF91C2
:1011A000CF910895FB01DC018D9101908019011010
:1011B000D9F3990B0895FB01DC0101900D920020F9
:0811C000E1F70895F894FFCF58
:1011C8001900000031313131310031313131310014
:1011D8000101013132334134353642373839432A37
:1011E8003023440138393133340031323336390051
:1011F8003332313930003031323637003930313717
:101208003100383931333400313233363900333232
:10121800313930003031323637003930313731002A
:1012280043415553413A2053494E414C2000414DCA
:101238004100414D4900414D4300494E56414C0043
:101248004148002A202D20414C41524D452046411D
:101258004C534F0023202D204D414953204F5043DC
:101268004F4553002A20496E747275736F206C6F56
:1012780063616C002320496E76616469646F004D78
:101288004F5449564F20444F20414C41524D450040
:10129800646174613A20002A2053454E4841530046
:1012A80023204D414953204F50434F4553002A2096
:1012B80045535441444F205553554152494F002AF4
:1012C80020504544495220484F524153002A20009B
:1012D8004841420044455300204D4F444F204E4F53
:1012E80054002320534149520053454E4841204958
:1012F8004E56414C49444100312F32202D20555340
:10130800554152494F312F32002A202D2041444D5A
:101318000031202D2000205553554152494F3100AE
:1013280032202D2000205553554152494F3220205C
:10133800002A2052455345542053454E48415300F6
:10134800232054524F4341522053454E48415300A5
:10135800524553455441522053454E4841533F004E
:101368002A202D2053494D202023202D204E414F47
:1013780000202020202053454E4841532020202083
:1013880020002020444956455247454E5445532095
:101398002020004E4F56412053454E48413A0052B6
:1013A800455049544120412053454E48413A004D4B
:1013B8004F444F204E4F5455524E4F204F4E0073BE
:1013C800656E68613A004D4F444F204E4F54555258
:1013D8004E4F204F4646002D2D2D414C41524D4930
:1013E80043524F532D2D2D00494E545255534F0003
:1013F800414C41524D45204F4646004154495641C3
:101408004E444F2053495354454D410053454E488F
:101418004120494E434F52524554410053454E488E
:101428004120434F52524554410042454D2D5649A3
:101438004E444F2041444D00414C41524D452041BE
:101448005449564F0063656E7472616C007573750C
:101458006172696F31007573756172696F3200610D
:10146800646D00696E747275736F0073656E686180
:1014780020696E636F727265746100414D56000099
:00000001FF
