:1000000071C000008EC000008CC000008AC00000DB
:1000100088C0000086C0000084C0000082C00000CC
:1000200080C000007EC000007CC000003DC3000016
:1000300078C0000076C0000074C0000072C00000EC
:1000400070C000006EC000006CC000006AC00000FC
:10005000C2C3000066C0000064C0000062C00000AF
:1000600060C000005EC000005CC000005AC000001C
:1000700058C0000056C0000054C0000052C000002C
:1000800050C000004EC000004CC000004AC000003C
:1000900048C0000046C0000044C0000042C000004C
:1000A00040C000003EC000003CC000003AC000005C
:1000B00038C0000036C0000034C0000032C000006C
:1000C00030C000002EC000002CC000002AC000007C
:1000D00028C0000026C0000024C0000022C000008C
:1000E00020C0000011241FBECFEFD1E2DEBFCDBF84
:1000F00000E00CBF13E0A0E0B2E0EAE8FAE000E0C4
:100100000BBF02C007900D92A037B107D9F723E0CB
:10011000A0E7B3E001C01D92A138B207E1F799D280
:10012000B2C46ECFCF92DF92EF92FF92C12CD12C4E
:10013000760111C080917203882341F08091710390
:10014000882321F0B9D385B1805885B98FEFC81ABB
:10015000D80AE80AF80A8091000290910102A09161
:100160000202B0910302880F991FAA1FBB1F880FBC
:10017000991FAA1FBB1FC816D906EA06FB06D4F2B0
:10018000FF90EF90DF90CF900895CF92DF92EF92A3
:10019000FF923AC080917203882349F080917103E5
:1001A000882329F07AD395B180E4892785B98FEF28
:1001B000C81AD80AE80AF80A03C0C12CD12C760163
:1001C00080E9C81681E0D806E104F1041CF3C12CD3
:1001D000D12C760112C080917203882349F080915E
:1001E0007103882329F04AD395B180E4892785B922
:1001F0008FEFC81AD80AE80AF80A80E2C81683E026
:10020000D806E104F1043CF380917203882321F0C5
:10021000809171038111D1CFFF90EF90DF90CF904B
:100220000895F7D18CE392E0E8D10DD28CE492E00E
:10023000E4C10895EED18AE592E0DFD104D28CE4E6
:1002400092E0DBC10895E5D18BE692E0D6D1FBD1F7
:100250008CE492E0D2C10895DCD189E792E0CDD15F
:1002600080910B02811104C08CE792E0C6D103C0DB
:1002700080E892E0C2D184E892E0BFD1E4D18EE878
:1002800092E0BBC10895C5D185E992E0B6D1DBD13A
:1002900086EA92E0B2C10895BCD18EEA92E0ADD177
:1002A00080910D02811104C08CE792E0A6D103C0B9
:1002B00080E892E0A2D183EB92E09FD1C4D18DEB94
:1002C00092E09BD180910C02811104C08CE792E0F6
:1002D00094D103C080E892E090D182EC92E08DC18D
:1002E0000895CF9309D308D39CDF10920A0281E0CE
:1002F00080936D0093C00CD1809373038A3209F010
:1003000040C0C1DF1092730303D1809373039FEC4D
:10031000980F923010F08A32B9F77BD18EEC92E0D0
:100320006CD191D10CD3BC0184E092E0A5D3C091F3
:100330007303C13329F464E072E084E292E09CD359
:10034000C23329F464E072E08AE292E095D3CA32C3
:1003500029F464E072E080E392E08ED380E090E0E4
:1003600005C0FC01EA58FC4F1082019685309105CA
:10037000C4F310927D0310927C0353DF1092730339
:100380004DC0833209F04AC055DF10927303C0D0CC
:10039000809373038A32E9F47FDF10927303B8D03D
:1003A00080937303813341F481E090910D029111A8
:1003B00080E080930D0209C0823389F781E090913B
:1003C0000C02911180E080930C022BDF10927303DA
:1003D00025C08332E1F637DF1092730399D0809302
:1003E00073038A32C1F08332C9F736DF1092730388
:1003F0008FD0809373038A3241F481E090910B0295
:10040000911180E080930B0206C0833289F781E06E
:1004100080930A02FED005DF1092730380910A02D6
:10042000882309F468CF8FE080936D00CF91089501
:100430009FE7909308012091060130E0082E02C04A
:10044000359527950A94E2F720FD05C0FB01E25F90
:10045000FD4F808108959FEB909308012091060144
:1004600030E0082E02C0359527950A94E2F720FD6A
:1004700005C0FB01E25FFD4F848108959FED9093DD
:1004800008012091060130E0082E02C0359527951D
:100490000A94E2F720FD05C0FB01E25FFD4F808575
:1004A00008959FEE909308012091060130E0A90184
:1004B00002C0559547958A95E2F740FD05C0FB01BE
:1004C000E25FFD4F8485089580E00895873031F420
:1004D00060E070E083E090E0ABCF08958B3031F4C2
:1004E00061E070E082E090E0A3CF08958D3031F4B8
:1004F00062E070E081E090E09BCF08958E3031F4AF
:1005000063E070E080E090E093CF089580E008958C
:10051000CF93DF938FE080930801809106018F30A5
:10052000E1F3C6E0D1E0888180938003CFDF809340
:100530007E03D2D18FE0809308018881809380036D
:10054000C5DF90917E03891390E0892FDF91CF91D1
:10055000089592E094BD87BD95BB089516BC82E0D6
:1005600085BB81E085BDA99BFECF15BC08958FEFAB
:1005700081B980EE87B908958FEFEBDF88B1806491
:1005800088B9ECDFEBDFEADF88B18F7B88B9E6DF83
:10059000E5DFE4CF0895CF93C82F8FEFDADF88B17E
:1005A000806888B98C2F807F82B9E6DFD7DFD6DFFD
:1005B000D5DF20E1C29FC001112482B9DDDFCEDF8B
:1005C000CDDFCCDFCF910895CF93C82F8FEFC1DF60
:1005D00088B18F7788B98C2F807F82B9CDDFBEDF5D
:1005E000BDDFBCDF20E1C29FC001112482B9C4DF9E
:1005F000B5DFB4DFB3DFCF910895CF93DF93EC0184
:1006000002C0C9DF219688818111FBCFDF91CF9194
:10061000089581E0D9DFA2DFA1DFA0DF6DC10895D9
:1006200088B18F7D88B988B18F7788B988E282B91F
:10063000A3DF94DF93DF92DF86E0C6DF84E1C4DFCF
:100640008EE0C2CF089580ECBFDF88DF87DF86CFE2
:1006500008958FEF84B915B880EF809307018FE07C
:1006600080930801E8E6F0E0808184608083EDE615
:10067000F0E080818F6080837894F4D078DFD0DFE1
:10068000C8DF8AED92E0B9DFDEDF83ED92E0B5DF0F
:10069000809172038823E1F3809171038823C1F371
:1006A00041DD73DD15B8F4CF1F920F920FB60F9294
:1006B00011240BB60F922F933F934F935F936F9339
:1006C0007F938F939F93AF93BF93EF93FF9315B84F
:1006D00080917003811167C081E08093700318DFFF
:1006E00080937F0390917203992309F439C0815458
:1006F000843058F48EDF8BEE92E07FDFA4DF83ED51
:1007000092E07BDF81E08093710380917F0390ED25
:10071000980F9A3008F045C020917C0330917D03FA
:10072000253031050CF4F8D080917C0390917D0345
:10073000059709F036C05DD1019799F510927203C3
:100740001092710366DF83EF92E057DFD5D061DF4F
:100750008AED92E052DF77DF83ED92E04EDF21C039
:1007600090ED980F9A30E8F420917C0330917D034E
:10077000253031050CF4D0D080917C0390917D031D
:10078000059779F436D1019761F41092710385E0F1
:100790008093810081E080936F003BDF8EEF92E0D9
:1007A0002CDF9AD005C0109270038FE0809308016F
:1007B000FF91EF91BF91AF919F918F917F916F9139
:1007C0005F914F913F912F910F900BBE0F900FBEF5
:1007D0000F901F9018951F920F920FB60F92112431
:1007E0000BB60F922F933F934F935F936F937F932B
:1007F0008F939F93AF93BF93EF93FF938091740375
:100800009091750383319105A9F403DF8FE093E0A4
:10081000F4DE19DF83ED92E0F0DE81E08093720375
:100820001092810010926F0086BB10927503109297
:10083000740305C001969093750380937403FF9130
:10084000EF91BF91AF919F918F917F916F915F9148
:100850004F913F912F910F900BBE0F900FBE0F90B5
:100860001F90189578941092800010928500109235
:10087000840081E080936F0086BB08951092200170
:1008800081E08093210120EF38ED30932501209302
:1008900024018ABBD09BFECF08951092200181E0F5
:1008A0008093210120EE31EB309325012093240128
:1008B0008ABBD09BFECF08951092200183E08093E5
:1008C00021018CED9BE0909325018093240181E030
:1008D0008ABBD09BFECF08951092200183E08093C5
:1008E000210180EB9CE3909325018093240181E01A
:1008F0008ABBD09BFECF08951092200184E08093A4
:1009000021018CED9BE0909325018093240181E0EF
:100910008ABBD09BFECF0895E0917C03F0917D03CC
:10092000EA58FC4F80838AE236DE80917C03909106
:100930007D03019690937D0380937C03089580E06E
:1009400090E005C0FC01EA58FC4F1082019685300A
:100950009105C4F310927D0310927C030BC00597A0
:100960004CF4D6DD80937F038FE080930801809163
:100970007F03D2DF80917C0390917D0385309105C8
:1009800074F386E793E0089564E272E086E793E00B
:100990006AD0892BF9F06AE272E086E793E063D0CF
:1009A000892BD9F060E372E086E793E05CD0892B75
:1009B000B9F06EE172E086E793E055D0892B99F0AB
:1009C00066E372E086E793E04ED0892B79F48AE300
:1009D00093E008958CE193E0089585E293E0089513
:1009E0008EE293E0089582E393E0089582E493E039
:1009F00008950F931F93CF93DF93C6DF8C0162E4BA
:100A000073E031D0EC01892B69F403DE10927D0391
:100A100010927C0382E593E0F0DD15DE83ED92E039
:100A2000ECDD1BC0F6DD10927D0310927C0382E6A4
:100A300093E0E3DD6EE273E0C80115D0EC01892B91
:100A400051F44FDCE6DD8AED92E0D7DDFCDD83ED8D
:100A500092E0D3DD02C0C1E0D0E0CE01DF91CF91C2
:100A60001F910F910895FB01DC018D910190801978
:100A70000110D9F3990B0895FB01DC0101900D924F
:0A0A80000020E1F70895F894FFCF7D
:100A8A0019000000313131313100010101013132E7
:100A9A00334134353642373839432A3023443839DA
:100AAA0031333400313233363900333231393000A0
:100ABA003031323637003930313731002A2054523A
:100ACA004F4341522053454E4841530023204D4144
:100ADA004953204F50434F4553002A204553544110
:100AEA00444F205553554152494F002A20504544FE
:100AFA00495220484F524153002A2000484142009F
:100B0A0044455300204D4F444F204E4F540023205C
:100B1A005341495200312F32202D2055535541520D
:100B2A00494F312F32002A202D2041444D003120D7
:100B3A002D2000205553554152494F310032202D66
:100B4A002000205553554152494F322020004E4F24
:100B5A0056412053454E48413A002D2D2D414C41D6
:100B6A00524D4943524F532D2D2D00494E54525543
:100B7A00534F00414C41524D45204F464600415487
:100B8A004956414E444F2053495354454D41004123
:100B9A004C41524D4520415449564F007573756179
:100BAA0072696F31007573756172696F32006164C1
:100BBA006D0063656E7472616C00696E7472757330
:100BCA006F0073656E686120696E636F7272657417
:100BDA00610053454E484120494E434F52524554B5
:100BEA00410053454E484120434F5252455441001B
:00000001FF
