:1000000071C000008FC000008DC000008BC00000D8
:1000100089C0000087C0000085C0000083C00000C8
:1000200081C000007FC000007DC0000055C50000F9
:1000300079C0000077C0000075C0000073C00000E8
:1000400071C000006FC000006DC000006BC00000F8
:10005000D8C5000067C0000065C0000063C0000094
:1000600061C0000052C600005DC000005BC000001F
:1000700059C0000057C0000055C0000053C0000028
:1000800051C000004FC000004DC0000001C600007C
:1000900049C0000047C0000045C0000043C0000048
:1000A00041C000003FC000003DC000003BC0000058
:1000B00039C0000075C6000035C0000033C0000024
:1000C00031C000002FC000002DC000002BC0000078
:1000D00029C0000027C0000025C0000023C0000088
:1000E00021C0000011241FBECFEFD1E2DEBFCDBF83
:1000F00000E00CBF14E0A0E0B2E0E0E6F1E100E0D7
:100100000BBF02C007900D92AE3BB107D9F724E0B8
:10011000AEEBB4E001C01D92A43EB207E1F740D4BB
:100120000C94AE086DCFCF92DF92EF92FF92C12C6C
:10013000D12C760111C08091C004882341F08091B8
:10014000BF04882321F0C2D685B1805885B98FEFCE
:10015000C81AD80AE80AF80A8091000290910102B0
:10016000A0910202B0910302880F991FAA1FBB1F22
:10017000880F991FAA1FBB1FC816D906EA06FB06DF
:10018000D4F2FF90EF90DF90CF900895CF92DF925E
:10019000EF92FF923AC08091C004882349F0809189
:1001A000BF04882329F083D695B180E4892785B9D7
:1001B0008FEFC81AD80AE80AF80A03C0C12CD12C5C
:1001C000760180E9C81681E0D806E104F1041CF349
:1001D000C12CD12C760112C08091C004882349F033
:1001E0008091BF04882329F053D695B180E48927F4
:1001F00085B98FEFC81AD80AE80AF80A80E2C8164B
:1002000083E0D806E104F1043CF38091C004882324
:1002100021F08091BF048111D1CF15B8FF90EF90EC
:10022000DF90CF9008958FE592E09DD280EE94E02C
:100230009AD2BFD2E8EDF4E04481558162817381A6
:1002400080819181D3D262D661D660D6CAD25ED681
:100250005DD61092C50481E080936D00B0D20ED2BD
:100260008093C5048A3249F48DE692E058D08DEE31
:1002700092E055D080E044D013C0833281F71092D1
:10028000C504A6D2FBD18093C5048A3221F481E74C
:1002900092E045D005C08332A9F785E792E03FD0D0
:1002A0006ED289E792E05FD284D288EF93E05BD28E
:1002B0008FE080936D000895E1ECF0E0808180682C
:1002C00080830895E1ECF0E080818F77808308954A
:1002D00083E390E09093C5008093C400E1ECF0E0EC
:1002E00080818861808386E08093C200E5CF089595
:1002F0008091C000807208958091C0008078089538
:10030000CF93C82FF5DF8823E9F3C093C600CF91C0
:100310000895F2DF8823E9F38091C60008950F93D2
:100320001F93CF938C01C0E002C0EADFCF5FF801DA
:10033000EC0FF11D80818111F8CFCF911F910F91AA
:1003400008950F931F93CF93C82F8A30B0F08DEC90
:10035000C89F812D1124869586958695082F10E0DB
:10036000805DCFD126EF2003C001219F900D112485
:100370008C0F911D805DC5D105C080E3C2D180E3A3
:100380008C0FBFD1CF911F910F910895CF9348D279
:100390001092100281E080936D00F2C06FD18093C3
:1003A000C5048A3209F088C0A0D21092C50466D173
:1003B0008093C5048A32F1F4A1D21092C5045ED1B3
:1003C0008093C5048A3281F467E472E089E292E0A6
:1003D000BED66DE472E08FE292E0B9D663E572E0DA
:1003E00085E392E0B4D602C0833249F719D2109265
:1003F000C504C6C08332D9F64AD21092C5043ED194
:100400008093C5049FEC980F923010F08A32B9F7B0
:100410001092C30423C084D2AAD5BC018AE092E022
:1004200096D66AE872E08AE092E088D6892BA1F03D
:100430007DD29DD5BC0184E092E089D664E072E073
:100440008AE092E07BD6892B21F481E08093C3047B
:1004500005C05DD25BD502C015D258D58091C304CA
:100460008823C9F2C091C504C13329F46AE072E05F
:1004700089E292E06CD6C23329F46AE072E08FE23E
:1004800092E065D6CA3229F46AE072E085E392E030
:100490005ED680E090E005C0FC01E153FB4F108286
:1004A000019685309105C4F31092D6041092D504BC
:1004B000B7D11092C50464C0833209F061C0B9D1CC
:1004C0001092C504DBD08093C5048A32E9F4E8D1E8
:1004D0001092C504D3D08093C504813341F481E0E8
:1004E00090911202911180E08093120209C0823330
:1004F00089F781E090911102911180E080931102BF
:100500008FD11092C5043CC08332E1F69BD110928A
:10051000C504B4D08093C5048A32B9F481E090E078
:100520009093C2048093C10480E992E0F8DECED4B7
:100530004091C80450E06091C90470E08091CA0401
:1005400090E054D1E3D4E2D418C0833211F783D1C0
:100550001092C50493D08093C5048A3241F481E09F
:100560009091C404911180E08093C40406C083324A
:1005700089F781E08093100202D152D11092C50414
:1005800080911002882309F409CF1092D6041092AA
:10059000D5048FE080936D00CF9108959FE79093ED
:1005A00008012091060130E0082E02C035952795FC
:1005B0000A94E2F720FD05C0FB01ED5EFD4F80814E
:1005C00008959FEB909308012091060130E0082EDA
:1005D00002C0359527950A94E2F720FD05C0FB017E
:1005E000ED5EFD4F848108959FED90930801209169
:1005F000060130E0082E02C0359527950A94E2F7EF
:1006000020FD05C0FB01ED5EFD4F808508959FEE46
:10061000909308012091060130E0A90102C0559590
:1006200047958A95E2F740FD05C0FB01ED5EFD4F61
:100630008485089580E00895873031F460E070E0AB
:1006400083E090E0ABCF08958B3031F461E070E04F
:1006500082E090E0A3CF08958D3031F462E070E045
:1006600081E090E09BCF08958E3031F463E070E03C
:1006700080E090E093CF089580E00895CF93DF93DA
:100680008FE080930801809106018F30E1F3C6E08E
:10069000D1E088818093E204CFDF8093D70426D411
:1006A0008FE08093080188818093E204C5DF9091F8
:1006B000D704891390E0892FDF91CF91089592E0BC
:1006C00094BD87BD95BB089516BC82E085BB81E0D3
:1006D00085BDA99BFECF15BC08958FEF81B980EE33
:1006E00087B908958FEFEBDF88B1806488B9ECDFBC
:1006F000EBDFEADF88B18F7B88B9E6DFE5DFE4CFA7
:100700000895CF93C82F8FEFDADF88B1806888B95A
:100710008C2F807F82B9E6DFD7DFD6DFD5DF20E1FF
:10072000C29FC001112482B9DDDFCEDFCDDFCCDF77
:10073000CF910895CF93C82F8FEFC1DF88B18F7706
:1007400088B98C2F807F82B9CDDFBEDFBDDFBCDFF3
:1007500020E1C29FC001112482B9C4DFB5DFB4DF3C
:10076000B3DFCF910895CF93DF93EC0102C0C9DFCF
:10077000219688818111FBCFDF91CF91089581E08F
:10078000D9DFA2DFA1DFA0DFC1C3089588B18F7DCB
:1007900088B988B18F7788B988E282B9A3DF94DFFE
:1007A00093DF92DF86E0C6DF84E1C4DF8EE0C2CF54
:1007B000089580ECBFDF88DF87DF86CF0895DFDF15
:1007C00083E992E0D0DFF5DF84EA92E0CCCF0895B0
:1007D000D6DF84EB92E0C7DFECDF84EC92E0C3CF9E
:1007E0000895CDDF8FEC92E0BECF08951F93CF9395
:1007F000DF93182FD62FC42FC2DF80EE92E0B3DF35
:10080000812F9FDD8DEF93E0AEDF8D2F9ADD8DEF91
:1008100093E0A9DF8C2F95DDDF91CF911F91089593
:10082000AEDF87EE92E09FDFC4DF80EF92E09BCFE8
:100830000895A5DF8EEF92E096DFBBDF80EF92E0B8
:1008400092CF08959CDF8FE093E08DDFB2DF80EFE1
:1008500092E089CF089593DF8DE193E084DF80916A
:10086000C404811104C080E293E07DDF03C084E210
:1008700093E079DF88E293E076DF9BDF82E393E029
:1008800072CF08957CDF89E393E06DCF089577DF21
:1008900088E493E068DF8DDF89E593E064CF089515
:1008A0006EDF81E693E05FDF80911202811104C068
:1008B00080E293E058DF03C084E293E054DF86E6F1
:1008C00093E051DF76DF80E793E04DDF8091110206
:1008D000811104C080E293E046DF03C084E293E02C
:1008E00042DF85E793E03FCF089549DF81E893E059
:1008F0003ADF5FDF80E993E036CF089540DF80EA9A
:1009000093E031DF56DF80EB93E02DCF089537DFA2
:1009100081EC93E028DF4DDF82ED93E024CF089552
:100920002EDF83EE93E01FDF44CF089528DF8FEEA4
:1009300093E019DF3ECF08958091C4048130A9F47B
:100940008091C904863088F481110FC08091C80459
:1009500081110BC081E08093C00411DF8FEF93E021
:1009600002DF27DF8FE094E0FEDE8091C404813057
:10097000B1F48091C904863090F0883180F48630DB
:1009800071F48091C80481110AC01092C004F7DE8E
:1009900086E194E0E8DE0DDF8FE094E0E4CE089598
:1009A0001092C0041092E3048FEF84B915B880EF61
:1009B000809307019FE090930801E8E6F0E08081D2
:1009C0008460808390936D00789482DC75DCAED275
:1009D00053D283DEDBDED3DE89E792E0C4DEE9DEDC
:1009E00088EF93E0C0DE8091C004882309F45EC0E4
:1009F0008091BF04882309F459C08091E104809359
:100A0000E004E8EDF4E08091CA0490E091838083F3
:100A10008091C90490E0938382838091C80490E020
:100A20009583848380DB8091C004882341F1809189
:100A3000BF04882321F18091E004813429F48DEEF4
:100A400092E06DDC81E05CDC8091E004823429F48A
:100A50008DEE92E064DC82E053DC8091E00483342C
:100A600029F48DEE92E05BDC84E04ADC8091E004C6
:100A7000843429F48DEE92E052DC88E041DC8091F0
:100A8000C004882399F08091BF04882379F01ADC90
:100A90007DDBC9DBE1ECF0E080818F7E80838081AB
:100AA0008061808309DC8FE0809308018091E304FA
:100AB000813009F098CF6ADC8FE080936D008093DD
:100AC00008011092E3045BDE89E792E04CDE71DE00
:100AD00088EF93E048DE87CF1F920F920FB60F92F8
:100AE00011240BB60F922F933F934F935F936F9305
:100AF0007F938F939F93AF93BF93CF93EF93FF9386
:100B000015B88091BE04811163C081E08093BE045A
:100B1000B5DD8093E1049091C004992381F1815463
:100B2000843058F42CDE87E294E01DDE42DE88EF4C
:100B300093E019DE81E08093BF048091E10490EDA1
:100B4000980F9A3008F042C02091D5043091D60415
:100B5000253031050CF4F8D18091D5049091D6045C
:100B60000597A1F59AD2019789F51092C0041092C9
:100B7000BF0405DE8FE294E0F6DDC8D127C090ED1A
:100B8000980F9A3018F52091D5043091D60425306D
:100B900031050CF4D9D18091D5049091D6040597F4
:100BA000A9F47BD2C82F813061F41092BF0485E094
:100BB0008093810081E080936F00E1DD8AE394E01F
:100BC000D2DDC23019F481E08093E3048FD105C0F7
:100BD0001092BE048FE080930801FF91EF91CF91B6
:100BE000BF91AF919F918F917F916F915F914F9145
:100BF0003F912F910F900BBE0F900FBE0F901F9043
:100C000018951F920F920FB60F9211240BB60F92E8
:100C10002F933F934F935F936F937F938F939F9304
:100C2000AF93BF93EF93FF938091CD049091CE0447
:100C300085309105A9F4A3DD8BE494E094DDB9DD62
:100C400088EF93E090DD81E08093C00410928100F2
:100C500010926F0086BB1092CE041092CD0405C096
:100C600001969093CE048093CD04FF91EF91BF91B4
:100C7000AF919F918F917F916F915F914F913F9134
:100C80002F910F900BBE0F900FBE0F901F901895D5
:100C90001F920F920FB60F9211240BB60F922F9343
:100CA0003F934F935F936F937F938F939F93AF93F4
:100CB000BF93EF93FF938091C6049091C7048D304A
:100CC000910559F41092C7041092C6048091C8048B
:100CD0008F5F8093C804ACD005C001969093C70481
:100CE0008093C604FF91EF91BF91AF919F918F9137
:100CF0007F916F915F914F913F912F910F900BBE1C
:100D00000F900FBE0F901F9018951F920F920FB665
:100D10000F9211240BB60F921F932F933F934F9373
:100D20005F936F937F938F939F93AF93BF93CF9373
:100D3000DF93EF93FF93EDDA8335E9F38834D1F451
:100D4000E8DA182FE6DAD82FE4DAC82F63D0109348
:100D5000CA04D093C904C093C8048091C10490917F
:100D6000C204892B19F480E992E0D9DA1092C20406
:100D70001092C104FF91EF91DF91CF91BF91AF919C
:100D80009F918F917F916F915F914F913F912F91A3
:100D90001F910F900BBE0F900FBE0F901F901895D4
:100DA0001F920F920FB60F9211240BB60F922F9332
:100DB0003F934F935F936F937F938F939F93AF93E3
:100DC000BF93EF93FF938091CB049091CC04833039
:100DD000910541F41092CC041092CB048EEB93E079
:100DE0009EDA05C001969093CC048093CB04FF91CA
:100DF000EF91BF91AF919F918F917F916F915F9193
:100E00004F913F912F910F900BBE0F900FBE0F90FF
:100E10001F90189578941092900085E0809391002F
:100E2000109295001092940081E0809371000895D3
:100E30008091C8048C3339F48091C9048F5F80930A
:100E4000C9041092C8048091C904883149F4809182
:100E5000CA048F5F8093CA041092C9041092C80418
:100E60008091CA048F3131F41092CA041092C904DF
:100E70001092C80461CD0895789410928000109269
:100E800085001092840081E080936F0086BB0895F6
:100E90001092200181E08093210120EF38ED309302
:100EA0002501209324018ABBD09BFECF0895109288
:100EB000200181E08093210120EE31EB3093250168
:100EC000209324018ABBD09BFECF0895109220016D
:100ED00083E0809321018CED9BE09093250180932A
:100EE000240181E08ABBD09BFECF0895109220019F
:100EF00083E08093210180EB9CE390932501809314
:100F0000240181E08ABBD09BFECF0895109220017E
:100F100084E0809321018CED9BE0909325018093E8
:100F2000240181E08ABBD09BFECF08957894109273
:100F3000A00085E08093A1001092A5001092A4006B
:100F400081E0809372000895E091D504F091D60479
:100F5000E153FB4F80838AE2D4DB8091D5049091EA
:100F6000D60401969093D6048093D504089580E02A
:100F700090E005C0FC01E153FB4F108201968530E3
:100F80009105C4F31092D6041092D5040DC00597B4
:100F90005CF474DB8093E104A9DFA8DF8FE0809329
:100FA00008018091E104D0DF8091D5049091D604AE
:100FB0008530910564F365E372E08FEC94E0BED078
:100FC000892BF9F063E272E08FEC94E0B7D0892BC3
:100FD000D9F06BE372E08FEC94E0B0D0892BB9F0DC
:100FE00069E272E08FEC94E0A9D0892B99F06FE26E
:100FF00072E08FEC94E0A2D0892B79F48AE892E039
:1010000008958AE892E008958AE892E008958AE8CF
:1010100092E008958AE892E008958FEC94E00895B4
:1010200069E272E08FEC94E089D0892B21F4809101
:101030001202811123C06FE272E08FEC94E07ED047
:10104000892B21F48091110281111BC065E372E0AC
:101050008FEC94E073D0892BB9F063E272E08FECEF
:1010600094E06CD0892B99F06BE372E08FEC94E004
:1010700065D0892B79F486E794E0089588E594E0BB
:10108000089581E694E008958AE694E008958EE656
:1010900094E008958EE794E00895CF93DF93C0DF46
:1010A0009093DF048093DE046EE774E047D0EC0198
:1010B000892B69F464DB1092D6041092D5048EE873
:1010C00094E051DB76DB88EF93E04DDB33C057DBF8
:1010D0001092D6041092D5048EE994E044DB69DBCB
:1010E0006EE674E08091DE049091DF0427D0892BB6
:1010F00019F48CEA94E013D966E774E08091DE0479
:101100009091DF041BD0892B19F481E792E007D975
:101110006AE674E08091DE049091DF040FD0892BA1
:1011200039F480EB94E01FDBF1DEC2E0D0E002C0D6
:10113000C1E0D0E0CE01DF91CF910895FB01DC0149
:101140008D91019080190110D9F3990B0895FB013D
:10115000DC0101900D920020E1F70895F894FFCF93
:10116000190000003131313131003131313131007C
:101170000101013132334134353642373839432A9F
:101180003023443839313334003132333639003387
:101190003231393000303132363700393031373181
:1011A000003839313334003132333639003332319B
:1011B0003930003031323637003930313731004381
:1011C000415553413A2053494E414C2000414D4135
:1011D00000414D4900414D43002D2D2D414C4152C0
:1011E0004D4943524F532D2D2D00494E56414C0031
:1011F0004148002A202D20414C41524D4520464176
:101200004C534F0023202D204D414953204F504334
:101210004F4553002A20496E747275736F206C6FAE
:1012200063616C002320496E76616469646F004DD0
:101230004F5449564F20444F20414C41524D450098
:10124000646174613A20002A2053454E484153009E
:1012500023204D414953204F50434F4553002A20EE
:1012600045535441444F205553554152494F002A4C
:1012700020504544495220484F524153002A2000F3
:101280004841420044455300204D4F444F204E4FAB
:1012900054002320534149520053454E48412049B0
:1012A0004E56414C49444100312F32202D20555398
:1012B000554152494F312F32002A202D2041444DB3
:1012C0000031202D2000205553554152494F310007
:1012D00032202D2000205553554152494F322020B5
:1012E000002A2052455345542053454E484153004F
:1012F000232054524F4341522053454E48415300FE
:10130000524553455441522053454E4841533F00A6
:101310002A202D2053494D202023202D204E414F9F
:1013200000202020202053454E48415320202020DB
:1013300020002020444956455247454E54455320ED
:101340002020004E4F56412053454E48413A00520E
:10135000455049544120412053454E48413A004DA3
:101360004F444F204E4F5455524E4F204F4E007316
:10137000656E68613A004D4F444F204E4F545552B0
:101380004E4F204F464600494E545255534F004150
:101390004C41524D45204F46460041544956414E1E
:1013A000444F2053495354454D4100414C41524D07
:1013B0004520415449564F007573756172696F310C
:1013C000007573756172696F320061646D006365E9
:1013D0006E7472616C00696E747275736F00736500
:1013E0006E686120696E636F727265746100534547
:1013F0004E484120494E434F5252455441005345B7
:101400004E484120434F525245544100414D5600F1
:0E14100042454D2D56494E444F2041444D005B
:00000001FF
