S01000006C63645F64616C652E73726563EC
S113000071C000008EC000008CC000008AC00000D7
S113001088C0000086C0000084C0000082C00000C8
S113002080C000007EC000007CC000000BC3000044
S113003078C0000076C0000074C0000072C00000E8
S113004070C000006EC000006CC000006AC00000F8
S11300505AC3000066C0000064C0000062C0000013
S113006060C000005EC000005CC000005AC0000018
S113007058C0000056C0000054C0000052C0000028
S113008050C000004EC000004CC000007DC3000002
S113009048C0000046C0000044C0000042C0000048
S11300A040C000003EC000003CC000003AC0000058
S11300B038C0000085C3000034C0000032C0000016
S11300C030C000002EC000002CC000002AC0000078
S11300D028C0000026C0000024C0000022C0000088
S11300E020C0000011241FBECFEFD1E2DEBFCDBF80
S11300F000E00CBF13E0A0E0B2E0E8E0FAE000E0CA
S11301000BBF02C007900D92A434B107D9F723E0C6
S1130110A4E4B3E001C01D92A535B207E1F76FD2A4
S113012071C46ECFCF92DF92EF92FF928FEF84B9BA
S1130130C12CD12C760109C08AD385B1805885B9E8
S11301408FEFC81AD80AE80AF80A80910002909141
S11301500102A0910202B0910302880F991FAA1F05
S1130160BB1F880F991FAA1FBB1FC816D906EA0612
S1130170FB0614F3FF90EF90DF90CF900895CF9299
S1130180DF92EF92FF922AC053D395B180E489277E
S113019085B98FEFC81AD80AE80AF80A03C0C12C37
S11301A0D12C760180E9C81681E0D806E104F10477
S11301B05CF3C12CD12C76010AC02BD395B180E419
S11301C0892785B98FEFC81AD80AE80AF80A80E2A5
S11301D0C81683E0D806E104F1047CF38091460359
S11301E0882321F0809145038111D9CFFF90EF90AE
S11301F0DF90CF900895E3D18CE392E0D4D1F9D18C
S11302008CE492E0D0C10895DAD18AE592E0CBD1B2
S1130210F0D18CE492E0C7C10895D1D18BE692E08D
S1130220C2D1E7D18CE492E0BEC10895C8D189E778
S113023092E0B9D180910B02811104C08CE792E065
S1130240B2D103C080E892E0AED184E892E0ABD1B1
S1130250D0D18EE892E0A7C10895B1D185E992E0AA
S1130260A2D1C7D186EA92E09EC10895A8D18EEAB0
S113027092E099D180910D02811104C08CE792E043
S113028092D103C080E892E08ED183EB92E08BD1CF
S1130290B0D18DEB92E087D180910C02811104C022
S11302A08CE792E080D103C080E892E07CD182ECBC
S11302B092E079C10895CF93DAD2D9D29CDF10921B
S11302C00A0281E080936D0093C00CD180934703B0
S11302D08A3209F040C0C1DF1092470303D18093F2
S11302E047039FEC980F923010F08A32B9F767D128
S11302F08EEC92E058D17DD1DDD2BC0184E092E055
S11303007AD3C0914703C13329F464E072E084E2F4
S113031092E071D3C23329F464E072E08AE292E09D
S11303206AD3CA3229F464E072E080E392E063D3D2
S113033080E090E005C0FC01E65BFC4F1082019672
S113034085309105C4F3109251031092500353DF8A
S1130350109247034DC0833209F04AC055DF109212
S11303604703C0D0809347038A32E9F47FDF1092B9
S11303704703B8D080934703813341F481E09091DF
S11303800D02911180E080930D0209C0823389F738
S113039081E090910C02911180E080930C022BDF9C
S11303A01092470325C08332E1F637DF10924703EA
S11303B099D0809347038A32C1F08332C9F736DF7C
S11303C0109247038FD0809347038A3241F481E02F
S11303D090910B02911180E080930B0206C083324E
S11303E089F781E080930A02EAD005DF109247037F
S11303F080910A02882309F468CF8FE080936D000E
S1130400CF9108959FE7909308012091060130E071
S1130410082E02C0359527950A94E2F720FD05C001
S1130420FB01E25FFD4F808108959FEB90930801EB
S11304302091060130E0082E02C0359527950A94D4
S1130440E2F720FD05C0FB01E25FFD4F84810895C2
S11304509FED909308012091060130E0082E02C020
S1130460359527950A94E2F720FD05C0FB01E25F6C
S1130470FD4F808508959FEE909308012091060119
S113048030E0A90102C0559547958A95E2F740FDF1
S113049005C0FB01E25FFD4F8485089580E0089567
S11304A0873031F460E070E083E090E0ABCF0895F2
S11304B08B3031F461E070E082E090E0A3CF0895E6
S11304C08D3031F462E070E081E090E09BCF0895DC
S11304D08E3031F463E070E080E090E093CF0895D3
S11304E080E008958FE080930801809106018F30A9
S11304F0E1F38091060180935403D2CF089592E0F2
S113050094BD87BD95BB089516BC82E085BB81E090
S113051085BDA99BFECF15BC08958FEF81B980EEF0
S113052087B908958FEFEBDF88B1806488B9ECDF79
S1130530EBDFEADF88B18F7B88B9E6DFE5DFE4CF64
S11305400895CF93C82F8FEFDADF88B1806888B918
S11305508C2F807F82B9E6DFD7DFD6DFD5DF20E1BD
S1130560C29FC001112482B9DDDFCEDFCDDFCCDF35
S1130570CF910895CF93C82F8FEFC1DF88B18F77C4
S113058088B98C2F807F82B9CDDFBEDFBDDFBCDFB1
S113059020E1C29FC001112482B9C4DFB5DFB4DFFA
S11305A0B3DFCF910895CF93DF93EC0102C0C9DF8D
S11305B0219688818111FBCFDF91CF91089581E04D
S11305C0D9DFA2DFA1DFA0DF52C1089588B18F7DFA
S11305D088B988B18F7788B988E282B9A3DF94DFBC
S11305E093DF92DF86E0C6DF84E1C4DF8EE0C2CF12
S11305F0089580ECBFDF88DF87DF86CF08958FEF13
S113060084B915B880EF809307018FE080930801C7
S1130610E8E6F0E0808184608083EDE6F0E08081AC
S11306208F6080837894E7D078DFD0DFC8DF809153
S113063046038823E1F3809145038823C1F372DDE7
S11306409EDDF5CF1F920F920FB60F9211240BB6B9
S11306500F922F933F934F935F936F937F938F9357
S11306609F93AF93BF93EF93FF9310920B018091ED
S11306704403811130C081E08093440333DF8093CD
S1130680530390914603992359F08154843008F51B
S113069096DF8AED92E087DF81E08093450319C0FD
S11306A090ED980F9A30A8F42091500330915103A3
S11306B0253031050CF4EBD0809150039091510317
S11306C0059739F452D1019721F410924603109200
S11306D04503CDD005C0109244038FE080930801F8
S11306E0FF91EF91BF91AF919F918F917F916F9106
S11306F05F914F913F912F910F900BBE0F900FBEC2
S11307000F901F9018951F920F920FB60F921124FD
S11307100BB60F922F933F934F935F936F937F93F7
S11307208F939F93AF93BF93EF93FF93809148036D
S1130730909149038130910579F441DF82EE92E092
S113074032DF81E0809346031092810086BB1092D1
S113075049031092480305C001969093490380937E
S11307604803FF91EF91BF91AF919F918F917F913A
S11307706F915F914F913F912F910F900BBE0F900E
S11307800FBE0F901F9018951F920F920FB60F92E5
S113079011242F933F938F931092900081E08093C4
S11307A0910020EE31EB309395002093940088BBA8
S11307B08F913F912F910F900FBE0F901F9018951E
S11307C01F920F920FB60F9211248F939F93109242
S11307D0A00083E08093A1008CED9BE09093A500A2
S11307E08093A40081E089BB9F918F910F900FBEED
S11307F00F901F90189578941092800087E798E6E0
S1130800909385008093840081E080936F0086BB81
S113081008951092200181E08093210120EF38EDAA
S113082030932501209324018ABBD09BFECF0895E9
S11308301092200181E08093210120EE31EB30936E
S11308402501209324018ABBD09BFECF08951092EA
S1130850200183E0809321018CED9BE0909325019E
S11308608093240181E08ABBD09BFECF089510922F
S1130870200184E0809321018CED9BE0909325017D
S11308808093240181E08ABBD09BFECF0895E09140
S11308905003F0915103E65BFC4F80838AE251DE02
S11308A0809150039091510301969093510380934A
S11308B05003089580E090E005C0FC01E65BFC4F26
S11308C01082019685309105C4F310925103109261
S11308D050030CC0059754F405DE80935303C7DF1F
S11308E08FE08093080180915303D1DF80915003FE
S11308F090915103853091056CF38AE493E0089557
S113090064E272E08AE493E06DD0892BF9F06AE244
S113091072E08AE493E066D0892BD9F060E372E058
S11309208AE493E05FD0892BB9F06EE172E08AE447
S113093093E058D0892B99F066E372E08AE493E05F
S113094051D0892B79F48DE093E008958FEE92E0F5
S1130950089588EF92E0089581E093E0089585E09A
S113096093E0089585E193E008950F931F93CF9347
S1130970DF93C6DF8C0165E173E034D0EC01892B91
S113098061F41DDE109251031092500385E293E04E
S11309900ADE6DDF6CDF13DE1FC011DE109251031F
S11309A01092500386E393E0FEDD61E073E0C8013A
S11309B019D0892B29F47FDC02DEC1E0D0E00CC021
S11309C080914603811106C085E080938100C1E0D7
S11309D0D0E002C0C1E0D0E0CE01DF91CF911F9101
S11309E00F910895FB01DC018D9101908019011094
S11309F0D9F3990B0895FB01DC0101900D920020BD
S10B0A00E1F70895F894FFCF1B
S1130A080500000031313131310001010101313279
S1130A18334134353642373839432A302344383958
S1130A28313334003132333639003332313930001E
S1130A383031323637003930313731002A205452B8
S1130A484F4341522053454E4841530023204D41C2
S1130A584953204F50434F4553002A20455354418E
S1130A68444F205553554152494F002A205045447C
S1130A78495220484F524153002A2000484142001D
S1130A8844455300204D4F444F204E4F54002320DB
S1130A985341495200312F32202D2055535541528C
S1130AA8494F312F32002A202D2041444D00312056
S1130AB82D2000205553554152494F310032202DE5
S1130AC82000205553554152494F322020004E4FA3
S1130AD856412053454E48413A00494E54525553C5
S1130AE84F00414C41524D4520415449564F0075E1
S1130AF873756172696F31007573756172696F32EC
S1130B080061646D0063656E7472616C00696E7473
S1130B187275736F0073656E686120696E636F72B6
S1130B28726574610073656E686120696E636F72C3
S1130B3872657461200073656E686120636F7272F8
S1070B48657461006B
S9030000FC
