S01000006C63645F64616C652E73726563EC
S113000071C000008EC000008CC000008AC00000D7
S113001088C0000086C0000084C0000082C00000C8
S113002080C000007EC000007CC0000087C10000CA
S113003078C0000076C0000074C0000072C00000E8
S113004070C000006EC000006CC000006AC00000F8
S1130050DEC1000066C0000064C0000062C0000091
S113006060C000005EC000005CC000005AC0000018
S113007058C0000056C0000054C0000052C0000028
S113008050C000004EC000004CC00000DCC10000A5
S113009048C0000046C0000044C0000042C0000048
S11300A040C000003EC000003CC000003AC0000058
S11300B038C00000E4C1000034C0000032C00000B9
S11300C030C000002EC000002CC000002AC0000078
S11300D028C0000026C0000024C0000022C0000088
S11300E020C0000011241FBECFEFD1E2DEBFCDBF80
S11300F000E00CBF12E0A0E0B2E0E8EFF4E000E0C2
S11301000BBF02C007900D92A031B107D9F722E0CE
S1130110A0E1B2E001C01D92A331B207E1F7F4D02F
S1130120E9C16ECF1F93CF93DF93182FEB018FE7B5
S113013080930801CFD18091060190E0012E02C086
S1130140959587950A94E2F780FD04C0C050DE4F70
S1130150888139C08FEB80930801BCD1809106015E
S113016090E0012E02C0959587950A94E2F780FDF0
S113017004C0C050DE4F8C8126C08FED80930801EF
S1130180A9D18091060190E0012E02C09595879532
S11301900A94E2F780FD04C0C050DE4F888513C086
S11301A08FEE8093080196D18091060190E002C001
S11301B0959587951A95E2F780FD04C0C050DE4FEF
S11301C08C8501C08BE4DF91CF911F910895873016
S11301D031F460E070E083E090E0A4CF08958B30C8
S11301E031F461E070E082E090E09CCF08958D30BE
S11301F031F462E070E081E090E094CF08958E30B5
S113020031F463E070E080E090E08CCF08958BE4FB
S113021008958FE0809308015DD1809106018F30AD
S1130220E1F38091060180931202D1CF089592E008
S113023094BD87BD95BB089516BC82E085BB81E063
S113024085BDA99BFECF15BC08958FEF81B980EEC3
S113025087B908958FEFEBDF88B1806488B9ECDF4C
S1130260EBDFEADF88B18F7B88B9E6DFE5DFE4CF37
S11302700895CF93C82F8FEFDADF88B1806888B9EB
S11302808C2F807F82B9E6DFD7DFD6DFD5DF20E190
S1130290C29FC001112482B9DDDFCEDFCDDFCCDF08
S11302A0CF910895CF93C82F8FEFC1DF88B18F7797
S11302B088B98C2F807F82B9CDDFBEDFBDDFBCDF84
S11302C020E1C29FC001112482B9C4DFB5DFB4DFCD
S11302D0B3DFCF91089581E0E5DFAEDFADDFACCFD2
S11302E0089588B18F7D88B988B18F7788B988E2FD
S11302F082B9B0DFA1DFA0DF9FDF86E0D3DF84E136
S1130300D1DF8EE0CFCF08958FEF84B980EF809353
S113031007018FE0809308017894E8E6F0E080819B
S113032084608083EDE6F0E080818F6080838DDFE0
S1130330D8DFD1DFBFD081E29CDFFFCF1F920F92C5
S11303400FB60F9211240BB60F922F933F934F9336
S11303505F936F937F938F939F93AF93BF93EF9329
S1130360FF9357DF80931102813309F482DF809178
S11303701102823309F47DDF80911102833309F481
S113038078DF80911102843309F473DF80911102C4
S1130390853309F46EDF80911102863309F469DF35
S11303A080911102873309F464DF8091110288334C
S11303B009F45FDF80911102893309F45ADF8091D7
S11303C01102813409F455DF80911102823409F459
S11303D050DF80911102833409F44BDF80911102C4
S11303E0843409F446DF66D0FF91EF91BF91AF9159
S11303F09F918F917F916F915F914F913F912F9139
S11304000F900BBE0F900FBE0F901F9018951F9268
S11304100F920FB60F9211242F933F938F93109244
S1130420800081E08093810020EF38ED30938500D7
S11304302093840086BB8F913F912F910F900FBE24
S11304400F901F9018951F920F920FB60F921124C0
S11304502F933F938F931092900081E080939100AB
S113046020EE31EB309395002093940088BB8F915C
S11304703F912F910F900FBE0F901F9018951F92D0
S11304800F920FB60F9211248F939F931092A00096
S113049083E08093A1008CED9BE09093A500809372
S11304A0A40081E089BB9F918F910F900FBE0F90A4
S11304B01F9018951092200184E0809321018CED07
S11304C09BE0909325018093240181E08ABBD09B1B
S11304D0FECF08951092200184E08093210180E0F2
S11304E09EEF909325018093240181E08ABBD09BE9
S10B04F0FECF0895F894FFCF3C
S11304F83132334134353642373839432A3023448C
S9030000FC
