S01000006C63645F64616C652E73726563EC
S113000071C000008EC000008CC000008AC00000D7
S113001088C0000086C0000084C0000082C00000C8
S113002080C000007EC000007CC0000038C4000016
S113003078C0000076C0000074C0000072C00000E8
S113004070C000006EC000006CC000006AC00000F8
S1130050C6C4000066C0000064C0000062C00000A6
S113006060C0000040C500005CC000005AC0000031
S113007058C0000056C0000054C0000052C0000028
S113008050C000004EC000004CC00000EFC400008F
S113009048C0000046C0000044C0000042C0000048
S11300A040C000003EC000003CC000003AC0000058
S11300B038C0000063C5000034C0000032C0000036
S11300C030C000002EC000002CC000002AC0000078
S11300D028C0000026C0000024C0000022C0000088
S11300E020C0000011241FBECFEFD1E2DEBFCDBF80
S11300F000E00CBF14E0A0E0B2E0E2E9FEE000E0C2
S11301000BBF02C007900D92A831B107D9F724E0C4
S1130110A8E1B4E001C01D92A433B207E1F782D391
S1130120B6C66ECFCF92DF92EF92FF92C12CD12C44
S1130130760111C080911A04882341F0809119043A
S1130140882321F0B0D585B1805885B98FEFC81ABE
S1130150D80AE80AF80A8091000290910102A0915D
S11301600202B0910302880F991FAA1FBB1F880FB8
S1130170991FAA1FBB1FC816D906EA06FB06D4F2AC
S1130180FF90EF90DF90CF900895CF92DF92EF929F
S1130190FF923AC080911A04882349F0809119048F
S11301A0882329F071D595B180E4892785B98FEF2B
S11301B0C81AD80AE80AF80A03C0C12CD12C76015F
S11301C080E9C81681E0D806E104F1041CF3C12CCF
S11301D0D12C760112C080911A04882349F08091B1
S11301E01904882329F041D595B180E4892785B97C
S11301F08FEFC81AD80AE80AF80A80E2C81683E022
S1130200D806E104F1043CF380911A04882321F018
S1130210809119048111D1CFFF90EF90DF90CF909E
S11302200895E1ECF0E0808180688083089583E3A1
S113023090E09093C5008093C400E1ECF0E08081ED
S11302408861808386E08093C200EBCF089580911B
S1130250C000807208958091C00080780895CF9383
S1130260C82FF5DF8823E9F3C093C600CF91089522
S1130270F2DF8823E9F38091C60008950F931F935A
S1130280CF938C01C0E002C0EADFCF5FF801EC0F2E
S1130290F11D80818111F8CFCF911F910F910895A5
S11302A00F931F93CF93C82F8A30B0F08DECC89F63
S11302B0812D1124869586958695082F10E0805D02
S11302C053D226EF2003C001219F900D11248C0FDF
S11302D0911D805D49D205C080E346D280E38C0F36
S11302E043D2CF911F910F9108957CD280E692E082
S11302F06DD280912404D4DF8EE693E067D280919E
S11303002304CEDF8EE693E061D280912204C8CF2D
S1130310089568D287E692E059D27ED280E792E0CF
S113032055C208955FD28EE792E050D275D280E72D
S113033092E04CC2089556D28FE892E047D26CD234
S113034080E792E043C208954DD28DE992E03ED217
S113035080911102811104C080EA92E037D203C077
S113036084EA92E033D288EA92E030D255D282EB2A
S113037092E02CC2089536D289EB92E027D24CD277
S11303808AEC92E023C208952DD282ED92E01ED22F
S113039080911302811104C080EA92E017D203C055
S11303A084EA92E013D287ED92E010D235D281EE46
S11303B092E00CD280911202811104C080EA92E092
S11303C005D203C084EA92E001D286EE92E0FEC137
S11303D0089508D282EF92E0F9D11ED281E093E031
S11303E0F5C10895FFD181E193E0F0D115D281E206
S11303F093E0ECC10895F6D182E393E0E7D10CD207
S113040083E493E0E3C10895EDD184E593E0DED184
S113041003C20895E7D180E693E0D8D1FDC10895E1
S1130420CF9377DF1092100281E080936D00DFC0DC
S113043058D180931E048A3209F07EC0CADF10921C
S11304401E044FD180931E048A32F1F4CBDF109244
S11304501E0447D180931E048A3281F468E472E05A
S11304608AE292E00DD56EE472E080E392E008D572
S113047064E572E086E392E003D502C0833249F773
S113048048DF10921E04B3C08332D9F674DF109291
S11304901E0427D180931E049FEC980F923010F015
S11304A08A32B9F710921D0419C0AEDF4DD4BC01D5
S11304B08AE092E0E5D4AEDF47D4BC0184E092E068
S11304C0DFD464E072E08AE092E0D1D4892B21F495
S11304D081E080931D0402C08EDF05D480911D0449
S11304E0882319F3C0911E04C13329F46AE072E031
S11304F08AE292E0C5D4C23329F46AE072E080E370
S113050092E0BED4CA3229F46AE072E086E392E053
S1130510B7D480E090E005C0FC01E75DFB4F10829A
S1130520019685309105C4F31092300410922F0483
S1130530F0DE10921E045BC0833209F058C0F2DE74
S113054010921E04CED080931E048A32E9F41CDF7C
S113055010921E04C6D080931E04813341F481E0BE
S113056090911302911180E08093130209C08233A9
S113057089F781E090911202911180E08093120238
S1130580C8DE10921E0433C08332E1F6D4DE10922A
S11305901E04A7D080931E048A3271F481E090E097
S11305A090931C0480931B0480E793E067DE7BD365
S11305B09CDE99D398D318C0833259F7C5DE1092C4
S11305C01E048FD080931E048A3241F481E09091FE
S11305D01102911180E08093110206C0833289F7E1
S11305E081E080931002FED094DE10921E0480916C
S11305F01002882309F41CCF8FE080936D00CF9103
S113060008959FE7909308012091060130E0082E99
S113061002C0359527950A94E2F720FD05C0FB0139
S1130620EC5EFD4F808108959FEB9093080120912B
S1130630060130E0082E02C0359527950A94E2F7AA
S113064020FD05C0FB01EC5EFD4F848108959FED04
S1130650909308012091060130E0082E02C03595E0
S113066027950A94E2F720FD05C0FB01EC5EFD4FDF
S1130670808508959FEE909308012091060130E053
S1130680A90102C0559547958A95E2F740FD05C03A
S1130690FB01EC5EFD4F8485089580E0089587306A
S11306A031F460E070E083E090E0ABCF08958B30EC
S11306B031F461E070E082E090E0A3CF08958D30E2
S11306C031F462E070E081E090E09BCF08958E30D9
S11306D031F463E070E080E090E093CF089580E02F
S11306E00895CF93DF938FE08093080180910601F2
S11306F08F30E1F3C6E0D1E0888180933304CFDF0B
S113070080933104E0D28FE0809308018881809344
S11307103304C5DF90913104891390E0892FDF9170
S1130720CF91089592E094BD87BD95BB089516BC02
S113073082E085BB81E085BDA99BFECF15BC0895F1
S11307408FEF81B980EE87B908958FEFEBDF88B121
S1130750806488B9ECDFEBDFEADF88B18F7B88B98E
S1130760E6DFE5DFE4CF0895CF93C82F8FEFDADF1C
S113077088B1806888B98C2F807F82B9E6DFD7DFA3
S1130780D6DFD5DF20E1C29FC001112482B9DDDFAD
S1130790CEDFCDDFCCDFCF910895CF93C82F8FEF7D
S11307A0C1DF88B18F7788B98C2F807F82B9CDDF84
S11307B0BEDFBDDFBCDF20E1C29FC001112482B9CE
S11307C0C4DFB5DFB4DFB3DFCF910895CF93DF93F8
S11307D0EC0102C0C9DF219688818111FBCFDF9132
S11307E0CF91089581E0D9DFA2DFA1DFA0DF7BC232
S11307F0089588B18F7D88B988B18F7788B988E2E8
S113080082B9A3DF94DF93DF92DF86E0C6DF84E161
S1130810C4DF8EE0C2CF089580ECBFDF88DF87DFBE
S113082086CF08958FEF84B915B880EF80930701C0
S11308308FE080930801E8E6F0E0808184608083A3
S1130840EDE6F0E080818F6080837894F0DCE9DC71
S11308505AD2FFD175DFCDDFC5DF83E793E0B6DF82
S1130860DBDF89E693E0B2DF80911A04882339F054
S113087080911904882319F055DC87DC15B8809120
S11308801F04813089F7CCDD10921F04ABDF83E7AE
S113089093E09CDFC1DF89E693E098DFE5CF1F9208
S11308A00F920FB60F9211240BB60F922F933F9312
S11308B04F935F936F937F938F939F93AF93BF9364
S11308C0CF93EF93FF9315B88091180481116EC0F4
S11308D081E08093180405DF8093320490911A0418
S11308E0992309F43AC08154843058F47BDF84E8B6
S11308F093E06CDF91DF89E693E068DF81E0809329
S113090019048091320490ED980F9A3008F04CC08D
S113091020912F0430913004253031050CF401D29C
S113092080912F0490913004059709F03DC068D25E
S1130930019709F039C010921A041092190452DF79
S11309408CE893E043DFCFD14DDF83E793E03EDFD4
S113095063DF89E693E03ADF27C090ED980F9A3081
S113096018F520912F0430913004253031050CF412
S1130970D8D180912F04909130040597A9F440D2E6
S1130980C82F813061F41092190485E080938100AE
S113099081E080936F0026DF87E993E017DFC230A0
S11309A019F481E080931F048ED105C010921804BD
S11309B08FE080930801FF91EF91CF91BF91AF91A8
S11309C09F918F917F916F915F914F913F912F9163
S11309D00F900BBE0F900FBE0F901F9018951F9293
S11309E00F920FB60F9211240BB60F922F933F93D1
S11309F04F935F936F937F938F939F93AF93BF9323
S1130A00EF93FF93809127049091280483319105FB
S1130A10A9F4E8DE88EA93E0D9DEFEDE89E693E015
S1130A20D5DE81E080931A041092810010926F0049
S1130A3086BB109228041092270405C00196909357
S1130A40280480932704FF91EF91BF91AF919F9168
S1130A508F917F916F915F914F913F912F910F9063
S1130A600BBE0F900FBE0F901F9018951F920F9200
S1130A700FB60F9211240BB60F922F933F934F93FF
S1130A805F936F937F938F939F93AF93BF93EF93F2
S1130A90FF9380912004909121048D30910559F4A5
S1130AA01092210410922004809122048F5F80937D
S1130AB02204ACD005C001969093210480932004B5
S1130AC0FF91EF91BF91AF919F918F917F916F9122
S1130AD05F914F913F912F910F900BBE0F900FBEDE
S1130AE00F901F9018951F920F920FB60F9211241A
S1130AF00BB60F921F932F933F934F935F936F9374
S1130B007F938F939F93AF93BF93CF93DF93EF9391
S1130B10FF93AEDB8335E9F38834D1F4A9DB182FD6
S1130B20A7DBD82FA5DBC82F63D010932404D09360
S1130B302304C093220480911B0490911C04892BEC
S1130B4019F480E793E09ADB10921C0410921B04C2
S1130B50FF91EF91DF91CF91BF91AF919F918F91D1
S1130B607F916F915F914F913F912F911F910F90C2
S1130B700BBE0F900FBE0F901F9018951F920F92EF
S1130B800FB60F9211240BB60F922F933F934F93EE
S1130B905F936F937F938F939F93AF93BF93EF93E1
S1130BA0FF9380912504909126048330910541F4AC
S1130BB010922604109225048FE293E05FDB05C0B7
S1130BC001969093260480932504FF91EF91BF91A1
S1130BD0AF919F918F917F916F915F914F913F91D1
S1130BE02F910F900BBE0F900FBE0F901F90189572
S1130BF078941092900085E0809391001092950073
S1130C001092940081E080937100089580912204F1
S1130C108C3339F4809123048F5F809323041092E2
S1130C20220480912304883149F4809124048F5F45
S1130C3080932404109223041092220480912404AB
S1130C408F3131F410922404109223041092220460
S1130C500895789410928000109285001092840078
S1130C6081E080936F0086BB08951092200181E09B
S1130C708093210120EF38ED309325012093240146
S1130C808ABBD09BFECF08951092200181E080930F
S1130C90210120EE31EB30932501209324018ABBFE
S1130CA0D09BFECF08951092200183E08093210110
S1130CB08CED9BE0909325018093240181E08ABB15
S1130CC0D09BFECF08951092200183E080932101F0
S1130CD080EB9CE3909325018093240181E08ABBFF
S1130CE0D09BFECF08951092200184E080932101CF
S1130CF08CED9BE0909325018093240181E08ABBD5
S1130D00D09BFECF089578941092A00085E0809344
S1130D10A1001092A5001092A40081E080937200BB
S1130D200895E0912F04F0913004E75DFB4F808338
S1130D308AE21ADD80912F049091300401969093F9
S1130D40300480932F04089580E090E005C0FC01F6
S1130D50E75DFB4F1082019685309105C4F3109234
S1130D60300410922F040DC005975CF4BADC809314
S1130D703204A9DFA8DF8FE0809308018091320458
S1130D80D0DF80912F04909130048530910564F375
S1130D9089E294E008956AE272E089E294E067D01F
S1130DA0892BF9F060E372E089E294E060D0892B4A
S1130DB0D9F066E372E089E294E059D0892BB9F066
S1130DC064E272E089E294E052D0892B99F06CE3FA
S1130DD072E089E294E04BD0892B79F483ED93E0BF
S1130DE0089585EB93E008958EEB93E0089587ECE6
S1130DF093E008958BEC93E008958BED93E00895D0
S1130E000F931F93CF93DF93C6DF8C016BED73E0D9
S1130E102ED0EC01892B69F4E5DC10923004109299
S1130E202F048BEE93E0D2DCF7DC89E693E0CEDC92
S1130E3018C0D8DC1092300410922F048BEF93E08A
S1130E40C5DCEADC67EC73E0C80111D0892B39F406
S1130E5089E094E0BBDC47DFC2E0D0E002C0C1E03F
S1130E60D0E0CE01DF91CF911F910F910895FB0146
S1130E70DC018D91019080190110D9F3990B08952B
S1130E80FB01DC0101900D920020E1F70895F89434
S1050E90FFCF8E
S1130E921900000031313131310031313131310049
S1130EA20101010131323341343536423738394395
S1130EB22A3023443839313334003132333639005D
S1130EC2333231393000303132363700393031374C
S1130ED23100383931333400313233363900333268
S1130EE23139300030313236370039303137310060
S1130EF2646174613A20002A2053454E48415300EC
S1130F0223204D414953204F50434F4553002A203B
S1130F1245535441444F205553554152494F002A99
S1130F2220504544495220484F524153002A200040
S1130F324841420044455300204D4F444F204E4FF8
S1130F42540023205341495200312F32202D205581
S1130F5253554152494F312F32002A202D2041440A
S1130F624D0031202D2000205553554152494F3117
S1130F720032202D2000205553554152494F322032
S1130F8220002A2052455345542053454E4841538C
S1130F9200232054524F4341522053454E4841535B
S1130FA200524553455441522053454E4841533F04
S1130FB2002A202D2053494D202023202D204E414C
S1130FC24F00202020202053454E4841532020200A
S1130FD22020002020444956455247454E5445534B
S1130FE2202020004E4F56412053454E48413A009E
S1130FF252455049544120412053454E48413A00FC
S11310024148002D2D2D414C41524D4943524F53DD
S11310122D2D2D00494E545255534F00414C4152EF
S11310224D45204F46460041544956414E444F20B7
S113103253495354454D4100414C41524D45204181
S11310425449564F007573756172696F3100757337
S1131052756172696F320061646D0063656E7472EA
S1131062616C00696E747275736F0073656E68618A
S113107220696E636F72726574610053454E484114
S113108220494E434F52524554410053454E484124
S113109220434F52524554410042454D2D56494E2C
S10B10A2444F2041444D0000BD
S9030000FC
