:1000000071C000008EC000008CC000008AC00000DB
:1000100088C0000086C0000084C0000082C00000CC
:1000200080C000007EC000007CC00000FEC1000057
:1000300078C0000076C0000074C0000072C00000EC
:1000400070C000006EC000006CC000006AC00000FC
:1000500068C2000066C0000064C0000062C000000A
:1000600060C000005EC000005CC000005AC000001C
:1000700058C0000056C0000054C0000052C000002C
:1000800050C000004EC000004CC000008BC20000F9
:1000900048C0000046C0000044C0000042C000004C
:1000A00040C000003EC000003CC000003AC000005C
:1000B00038C0000093C2000034C0000032C000000D
:1000C00030C000002EC000002CC000002AC000007C
:1000D00028C0000026C0000024C0000022C000008C
:1000E00020C0000011241FBECFEFD1E2DEBFCDBF84
:1000F00000E00CBF12E0A0E0B2E0EAEAF7E000E0C6
:100100000BBF02C007900D92AC39B107D9F722E0BE
:10011000ACE9B2E001C01D92AC3AB207E1F762D19E
:1001200042C36ECFCF92DF92EF92FF928FEF84B9EE
:10013000C12CD12C760109C098D285B1805885B9DF
:100140008FEFC81AD80AE80AF80A80910002909145
:100150000102A0910202B0910302880F991FAA1F09
:10016000BB1F880F991FAA1FBB1FC816D906EA0616
:10017000FB0614F3FF90EF90DF90CF900895CF929D
:10018000DF92EF92FF922AC061D295B180E4892775
:1001900085B98FEFC81AD80AE80AF80A03C0C12C3B
:1001A000D12C760180E9C81681E0D806E104F1047B
:1001B0005CF3C12CD12C76010AC039D295B180E410
:1001C000892785B98FEFC81AD80AE80AF80A80E2A9
:1001D000C81683E0D806E104F1047CF380919E0206
:1001E000882321F080919D028111D9CFFF90EF905B
:1001F000DF90CF9008959FE790930801209106012A
:1002000030E0082E02C0359527950A94E2F720FDCC
:1002100005C0FB01EC5FFD4F808108959FEB90933B
:1002200008012091060130E0082E02C0359527957F
:100230000A94E2F720FD05C0FB01EC5FFD4F8481CD
:1002400008959FED909308012091060130E0082E5B
:1002500002C0359527950A94E2F720FD05C0FB0101
:10026000EC5FFD4F808508959FEE909308012091EB
:10027000060130E0A90102C0559547958A95E2F73D
:1002800040FD05C0FB01EC5FFD4F8485089580E0D3
:100290000895873031F460E070E083E090E0ABCF08
:1002A00008958B3031F461E070E082E090E0A3CFFC
:1002B00008958D3031F462E070E081E090E09BCFF2
:1002C00008958E3031F463E070E080E090E093CFE9
:1002D000089580E008958FE08093080180910601E1
:1002E0008F30E1F3809106018093AB02D2CF089565
:1002F00092E094BD87BD95BB089516BC82E085BB96
:1003000081E085BDA99BFECF15BC08958FEF81B913
:1003100080EE87B908958FEFEBDF88B1806488B9EC
:10032000ECDFEBDFEADF88B18F7B88B9E6DFE5DF62
:10033000E4CF0895CF93C82F8FEFDADF88B18068BC
:1003400088B98C2F807F82B9E6DFD7DFD6DFD5DF93
:1003500020E1C29FC001112482B9DDDFCEDFCDDFF5
:10036000CCDFCF910895CF93C82F8FEFC1DF88B135
:100370008F7788B98C2F807F82B9CDDFBEDFBDDF5C
:10038000BCDF20E1C29FC001112482B9C4DFB5DF08
:10039000B4DFB3DFCF910895CF93DF93EC0102C0B8
:1003A000C9DF219688818111FBCFDF91CF9108951C
:1003B00081E0D9DFA2DFA1DFA0DF67C1089588B1A6
:1003C0008F7D88B988B18F7788B988E282B9A3DF39
:1003D00094DF93DF92DF86E0C6DF84E1C4DF8EE046
:1003E000C2CF08958FEF84B915B880EF80930701CD
:1003F0008FE080930801E8E6F0E0808184608083EC
:10040000EDE6F0E080818F608083789402D17EDF1A
:10041000D6DFCEDF80919E028823E1F380919D029A
:100420008823C1F37FDEABDEF5CF1F920F920FB6AC
:100430000F9211240BB60F922F933F934F935F931C
:100440006F937F938F939F93AF93BF93EF93FF939C
:1004500010920B0180919C0281114BC081E080932E
:100460009C0239DF8093AA0290919E02992331F178
:100470009FEB980F943040F49BDF82E392E08CDF97
:1004800081E080939D0233C09FEC980F993078F5FE
:100490002091A7023091A802253031050CF405D136
:1004A0008091A7029091A802059709F546D101977E
:1004B000F1F410929E0210929D0219C09FEC980FC9
:1004C0009930A8F42091A7023091A8022530310577
:1004D0000CF4EBD08091A7029091A802059739F413
:1004E0002CD1019721F410929E0210929D02CDD042
:1004F00005C010929C028FE080930801FF91EF915C
:10050000BF91AF919F918F917F916F915F914F912B
:100510003F912F910F900BBE0F900FBE0F901F9029
:1005200018951F920F920FB60F9211240BB60F92CF
:100530002F933F934F935F936F937F938F939F93EB
:10054000AF93BF93EF93FF9380919F029091A0028E
:100550008130910579F42CDF8AE392E01DDF81E0A0
:1005600080939E021092810086BB1092A00210928E
:100570009F0205C001969093A00280939F02FF9175
:10058000EF91BF91AF919F918F917F916F915F910B
:100590004F913F912F910F900BBE0F900FBE0F9078
:1005A0001F9018951F920F920FB60F9211242F9340
:1005B0003F938F931092900081E08093910020EE02
:1005C00031EB309395002093940088BB8F913F913D
:1005D0002F910F900FBE0F901F9018951F920F92A2
:1005E0000FB60F9211248F939F931092A00083E077
:1005F0008093A1008CED9BE09093A5008093A400D4
:1006000081E089BB9F918F910F900FBE0F901F903B
:10061000189578941092800087E798E6909385006B
:100620008093840081E080936F0086BB08951092D0
:10063000200181E08093210120EF38ED30932501E6
:10064000209324018ABBD09BFECF089510922001F5
:1006500081E08093210120EE31EB3093250120933E
:1006600024018ABBD09BFECF08951092200183E025
:10067000809321018CED9BE09093250180932401D0
:1006800081E08ABBD09BFECF08951092200184E0C8
:10069000809321018CED9BE09093250180932401B0
:1006A00081E08ABBD09BFECF0895E091A702F09134
:1006B000A802EF55FD4F80838AE23CDE8091A702BD
:1006C0009091A80201969093A8028093A7020895A2
:1006D0006AE172E081EA92E05DD0892BF9F060E294
:1006E00072E081EA92E056D0892BD9F066E272E09E
:1006F00081EA92E04FD0892BB9F064E172E081EA9F
:1007000092E048D0892B99F06CE272E081EA92E0A5
:1007100041D0892B79F485E692E0089587E492E050
:10072000089580E592E0089589E592E008958DE5C9
:1007300092E008958DE692E00895CF93DF93C8DFAD
:100740006DE672E027D0EC01892B61F431DE109266
:10075000A8021092A7028DE792E01EDE96DF95DFD9
:1007600027DE14C025DE1092A8021092A7028EE8A0
:1007700092E012DE80919E02811106C085E0809396
:100780008100C1E0D0E002C0C1E0D0E0CE01DF9145
:10079000CF910895FB01DC018D910190801901102A
:0A07A000D9F3990B0895F894FFCFE8
:1007AA000500000031323341343536423738394397
:1007BA002A30234438393133340031323336390060
:1007CA00333231393000303132363700393031374F
:1007DA003100494E545255534F00414C41524D45F8
:1007EA0020415449564F007573756172696F310023
:1007FA007573756172696F320061646D0063656E4D
:10080A007472616C00696E747275736F0073656ED1
:10081A00686120696E636F72726574610073656ED8
:10082A00686120696E636F72726574612000736516
:0C083A006E686120636F7272657461006B
:00000001FF
