:1000000071C000008EC000008CC000008AC00000DB
:1000100088C0000086C0000084C0000082C00000CC
:1000200080C000007EC000007CC00000F1C1000064
:1000300078C0000076C0000074C0000072C00000EC
:1000400070C000006EC000006CC000006AC00000FC
:100050005AC2000066C0000064C0000062C0000018
:1000600060C000005EC000005CC000005AC000001C
:1000700058C0000056C0000054C0000052C000002C
:1000800050C000004EC000004CC0000058C200002C
:1000900048C0000046C0000044C0000042C000004C
:1000A00040C000003EC000003CC000003AC000005C
:1000B00038C0000060C2000034C0000032C0000040
:1000C00030C000002EC000002CC000002AC000007C
:1000D00028C0000026C0000024C0000022C000008C
:1000E00020C0000011241FBECFEFD1E2DEBFCDBF84
:1000F00000E00CBF12E0A0E0B2E0ECE2F6E000E0CD
:100100000BBF02C007900D92A631B107D9F722E0CC
:10011000A6E1B2E001C01D92AB31B207E1F756D1C2
:1001200083C26ECFCF92DF92EF92FF928FEF84B9AE
:10013000C12CD12C760109C057D285B1805885B920
:100140008FEFC81AD80AE80AF80A80910002909145
:100150000102A0910202B0910302880F991FAA1F09
:10016000BB1F880F991FAA1FBB1FC816D906EA0616
:10017000FB0614F3FF90EF90DF90CF900895CF929D
:10018000DF92EF92FF922AC020D295B180E48927B6
:1001900085B98FEFC81AD80AE80AF80A03C0C12C3B
:1001A000D12C760180E9C81681E0D806E104F1047B
:1001B0005CF3C12CD12C76010AC0F8D195B180E452
:1001C000892785B98FEFC81AD80AE80AF80A80E2A9
:1001D000C81683E0D806E104F1047CF380910402A0
:1001E000882321F0809117028111D9CFFF90EF90E1
:1001F000DF90CF9008959FE790930801209106012A
:1002000030E0082E02C0359527950A94E2F720FDCC
:1002100005C0FB01EB5FFD4F808108959FEB90933C
:1002200008012091060130E0082E02C0359527957F
:100230000A94E2F720FD05C0FB01EB5FFD4F8481CE
:1002400008959FED909308012091060130E0082E5B
:1002500002C0359527950A94E2F720FD05C0FB0101
:10026000EB5FFD4F808508959FEE909308012091EC
:10027000060130E0A90102C0559547958A95E2F73D
:1002800040FD05C0FB01EB5FFD4F8485089580E0D4
:100290000895873031F460E070E083E090E0ABCF08
:1002A00008958B3031F461E070E082E090E0A3CFFC
:1002B00008958D3031F462E070E081E090E09BCFF2
:1002C00008958E3031F463E070E080E090E093CFE9
:1002D000089580E008958FE08093080180910601E1
:1002E0008F30E1F38091060180931A02D2CF0895F6
:1002F00092E094BD87BD95BB089516BC82E085BB96
:1003000081E085BDA99BFECF15BC08958FEF81B913
:1003100080EE87B908958FEFEBDF88B1806488B9EC
:10032000ECDFEBDFEADF88B18F7B88B9E6DFE5DF62
:10033000E4CF0895CF93C82F8FEFDADF88B18068BC
:1003400088B98C2F807F82B9E6DFD7DFD6DFD5DF93
:1003500020E1C29FC001112482B9DDDFCEDFCDDFF5
:10036000CCDFCF910895CF93C82F8FEFC1DF88B135
:100370008F7788B98C2F807F82B9CDDFBEDFBDDF5C
:10038000BCDF20E1C29FC001112482B9C4DFB5DF08
:10039000B4DFB3DFCF91089581E0E5DFAEDFADDFFD
:1003A000ACDF32C1089588B18F7D88B988B18F776D
:1003B00088B988E282B9AFDFA0DF9FDF9EDF86E0E9
:1003C000D2DF84E1D0DF8EE0CECF08958FEF84B905
:1003D00015B880EF809307018FE080930801E8E66D
:1003E000F0E0808184608083EDE6F0E080818F60C2
:1003F000808378948BDFD7DFCFDF8091040288235E
:10040000E1F3809117028823C1F38CDEB8DEF5CFCB
:100410001F920F920FB60F9211240BB60F922F93CB
:100420003F934F935F936F937F938F939F93AF937C
:10043000BF93EF93FF938091160281114CC081E02E
:100440008093160248DF80931902813309F472DF2A
:1004500080911902823309F46DDF80911902833390
:1004600009F468DF80911902843309F463DF809115
:100470001902853309F45EDF80911902863309F48D
:1004800059DF80911902873309F454DF80911902F2
:10049000883309F44FDF80911902893309F44ADF68
:1004A00080911902813409F445DF80911902823468
:1004B00009F440DF80911902833421F43BDF81E0AD
:1004C0008093170280911902843419F433DF10925B
:1004D00017029AD005C0109216028FE0809308018F
:1004E000FF91EF91BF91AF919F918F917F916F910C
:1004F0005F914F913F912F910F900BBE0F900FBEC8
:100500000F901F9018951F920F920FB60F92112403
:100510002F933F938F931092800081E0809381000E
:1005200020EF38ED309385002093840086BB8F91B7
:100530003F912F910F900FBE0F901F9018951F9213
:100540000F920FB60F9211242F933F938F93109217
:10055000900081E08093910020EE31EB3093950084
:100560002093940088BB8F913F912F910F900FBEE5
:100570000F901F9018951F920F920FB60F92112493
:100580008F939F931092A00083E08093A1008CED45
:100590009BE09093A5008093A40081E089BB9F918C
:1005A0008F910F900FBE0F901F9018951092200101
:1005B00081E08093210120EF38ED309325012093D5
:1005C00024018ABBD09BFECF08951092200181E0C8
:1005D0008093210120EE31EB3093250120932401FB
:1005E0008ABBD09BFECF08951092200183E08093B8
:1005F00021018CED9BE0909325018093240181E003
:100600008ABBD09BFECF08951092200184E0809396
:1006100021018CED9BE0909325018093240181E0E2
:0C0620008ABBD09BFECF0895F894FFCF5A
:10062C000500000001313233413435364237383958
:06063C00432A30234400B4
:00000001FF
