S01000006C63645F64616C652E73726563EC
S113000071C000008EC000008CC000008AC00000D7
S113001088C0000086C0000084C0000082C00000C8
S113002080C000007EC000007CC00000FCC4000052
S113003078C0000076C0000074C0000072C00000E8
S113004070C000006EC000006CC000006AC00000F8
S113005085C5000066C0000064C0000062C00000E6
S113006060C00000FFC500005CC000005AC0000072
S113007058C0000056C0000054C0000052C0000028
S113008050C000004EC000004CC00000AEC50000CF
S113009048C0000046C0000044C0000042C0000048
S11300A040C000003EC000003CC000003AC0000058
S11300B038C0000022C6000034C0000032C0000076
S11300C030C000002EC000002CC000002AC0000078
S11300D028C0000026C0000024C0000022C0000088
S11300E020C0000011241FBECFEFD1E2DEBFCDBF80
S11300F000E00CBF14E0A0E0B2E0EEE2F0E100E0CA
S11301000BBF02C007900D92A23BB107D9F724E0C0
S1130110A2EBB4E001C01D92A23DB207E1F70AD4FC
S113012084C76ECFCF92DF92EF92FF92C12CD12C75
S1130130760111C08091B404882341F08091B30406
S1130140882321F070D685B1805885B98FEFC81AFD
S1130150D80AE80AF80A8091000290910102A0915D
S11301600202B0910302880F991FAA1FBB1F880FB8
S1130170991FAA1FBB1FC816D906EA06FB06D4F2AC
S1130180FF90EF90DF90CF900895CF92DF92EF929F
S1130190FF923AC08091B404882349F08091B3045B
S11301A0882329F031D695B180E4892785B98FEF6A
S11301B0C81AD80AE80AF80A03C0C12CD12C76015F
S11301C080E9C81681E0D806E104F1041CF3C12CCF
S11301D0D12C760112C08091B404882349F0809117
S11301E0B304882329F001D695B180E4892785B921
S11301F08FEFC81AD80AE80AF80A80E2C81683E022
S1130200D806E104F1043CF38091B404882321F07E
S11302108091B3048111D1CF15B8FF90EF90DF9096
S1130220CF900895E1ECF0E08081806880830895A8
S113023083E390E09093C5008093C400E1ECF0E088
S113024080818861808386E08093C200EBCF08952B
S11302508091C000807208958091C00080780895D4
S1130260CF93C82FF5DF8823E9F3C093C600CF915D
S11302700895F2DF8823E9F38091C60008950F936F
S11302801F93CF938C01C0E002C0EADFCF5FF80177
S1130290EC0FF11D80818111F8CFCF911F910F9147
S11302A008950F931F93CF93C82F8A30B0F08DEC2D
S11302B0C89F812D1124869586958695082F10E078
S11302C0805D53D226EF2003C001219F900D11249D
S11302D08C0F911D805D49D205C080E346D280E336
S11302E08C0F43D2CF911F910F9108957CD28FE54B
S11302F092E06DD28091BE04D4DF8DE693E067D2A4
S11303008091BD04CEDF8DE693E061D28091BC0480
S1130310C8CF089568D286E692E059D27ED28FE69D
S113032092E055C208955FD28DE792E050D275D223
S11303308FE692E04CC2089556D28EE892E047D2FE
S11303406CD28FE692E043C208954DD28CE992E0DC
S11303503ED28091B804811104C08FE992E037D273
S113036003C083EA92E033D287EA92E030D255D2D6
S113037081EB92E02CC2089536D288EB92E027D22A
S11303804CD289EC92E023C208952DD281ED92E003
S11303901ED280911202811104C08FE992E017D21B
S11303A003C083EA92E013D286ED92E010D235D2F4
S11303B080EE92E00CD280911102811104C08FE989
S11303C092E005D203C083EA92E001D285EE92E086
S11303D0FEC1089508D281EF92E0F9D11ED280E0E7
S11303E093E0F5C10895FFD180E193E0F0D115D2F7
S11303F080E293E0ECC10895F6D181E393E0E7D184
S11304000CD282E493E0E3C10895EDD183E593E057
S1130410DED103C20895E7D18FE593E0D8D1FDC1C1
S11304200895CF9377DF1092100281E080936D00DE
S1130430DFC058D18093B9048A3209F07EC0CADF84
S11304401092B9044FD18093B9048A32F1F4CBDF0E
S11304501092B90447D18093B9048A3281F467E4D5
S113046072E089E292E0DAD56DE472E08FE292E024
S1130470D5D563E572E085E392E0D0D502C083323E
S113048049F748DF1092B904B3C08332D9F674DF58
S11304901092B90427D18093B9049FEC980F92303D
S11304A010F08A32B9F71092B70419C0AEDF0CD538
S11304B0BC018AE092E0B2D5AEDF06D5BC0184E08F
S11304C092E0ACD564E072E08AE092E09ED5892B9C
S11304D021F481E08093B70402C08EDFC4D48091FC
S11304E0B704882319F3C091B904C13329F46AE02D
S11304F072E089E292E092D5C23329F46AE072E0B4
S11305008FE292E08BD5CA3229F46AE072E085E387
S113051092E084D580E090E005C0FC01ED53FB4FF0
S11305201082019685309105C4F31092CA0410928A
S1130530C904F0DE1092B9045BC0833209F058C0DC
S1130540F2DE1092B904CED08093B9048A32E9F471
S11305501CDF1092B904C6D08093B904813341F4EE
S113056081E090911202911180E08093120209C0FF
S1130570823389F781E090911102911180E0809398
S11305801102C8DE1092B90433C08332E1F6D4DE1E
S11305901092B904A7D08093B9048A3271F481E02F
S11305A090E09093B6048093B5048FE693E067DE01
S11305B03AD49CDE58D457D418C0833259F7C5DED8
S11305C01092B9048FD08093B9048A3241F481E047
S11305D09091B804911180E08093B80406C08332EE
S11305E089F781E080931002FED094DE1092B90462
S11305F080911002882309F41CCF8FE080936D0052
S1130600CF9108959FE7909308012091060130E06F
S1130610082E02C0359527950A94E2F720FD05C0FF
S1130620FB01ED5EFD4F808108959FEB90930801DF
S11306302091060130E0082E02C0359527950A94D2
S1130640E2F720FD05C0FB01ED5EFD4F84810895B6
S11306509FED909308012091060130E0082E02C01E
S1130660359527950A94E2F720FD05C0FB01ED5E60
S1130670FD4F808508959FEE909308012091060117
S113068030E0A90102C0559547958A95E2F740FDEF
S113069005C0FB01ED5EFD4F8485089580E008955B
S11306A0873031F460E070E083E090E0ABCF0895F0
S11306B08B3031F461E070E082E090E0A3CF0895E4
S11306C08D3031F462E070E081E090E09BCF0895DA
S11306D08E3031F463E070E080E090E093CF0895D1
S11306E080E00895CF93DF938FE080930801809199
S11306F006018F30E1F3C6E0D1E088818093CF0416
S1130700CFDF8093CB049FD38FE08093080188814F
S11307108093CF04C5DF9091CB04891390E0892F97
S1130720DF91CF91089592E094BD87BD95BB089564
S113073016BC82E085BB81E085BDA99BFECF15BCBC
S113074008958FEF81B980EE87B908958FEFEBDFBD
S113075088B1806488B9ECDFEBDFEADF88B18F7B96
S113076088B9E6DFE5DFE4CF0895CF93C82F8FEF94
S1130770DADF88B1806888B98C2F807F82B9E6DFA0
S1130780D7DFD6DFD5DF20E1C29FC001112482B9B3
S1130790DDDFCEDFCDDFCCDFCF910895CF93C82F3F
S11307A08FEFC1DF88B18F7788B98C2F807F82B9B2
S11307B0CDDFBEDFBDDFBCDF20E1C29FC00111245D
S11307C082B9C4DFB5DFB4DFB3DFCF910895CF932F
S11307D0DF93EC0102C0C9DF219688818111FBCF30
S11307E0DF91CF91089581E0D9DFA2DFA1DFA0DFFF
S11307F03AC3089588B18F7D88B988B18F7788B955
S113080088E282B9A3DF94DF93DF92DF86E0C6DF5C
S113081084E1C4DF8EE0C2CF089580ECBFDF88DFBF
S113082087DF86CF08958091B8048130A9F4809140
S1130830BD04863088F481110FC08091BC048111FD
S11308400BC081E08093B404CEDF82E793E0BFDF86
S1130850E4DF82E893E0BBDF8091B8048130B1F437
S11308608091BD04863090F0883180F4863071F434
S11308708091BC0481110AC01092B404B4DF89E8E9
S113088093E0A5DFCADF82E893E0A1CF0895ABDF50
S11308908AE993E09CDFC1DF8BEA93E098CF089567
S11308A0A2DF8BEB93E093DFB8DF8BEC93E08FCF89
S11308B0089599DF86ED93E08ACF089587EE93E05B
S11308C086DF80ED94E083DFA8DF10DDCCD2CBD2CD
S11308D0CAD2EFDFC8D2C7D21092B90481E08093A4
S11308E06D00D5DFFFDE8093B9048A3221F485EFF1
S11308F093E0C5DC13C08332A9F71092B904D0DFAA
S1130900F1DE8093B9048A3221F489EF93E0B7DCF5
S113091005C08332A9F78DEF93E0B1DC64DF81E099
S113092094E055DF7ADF88E693E051DF8FE080932F
S11309306D0008951092B4041092D1048FEF84B91D
S113094015B880EF809307019FE090930801E8E6D3
S1130950F0E080818460808390936D00789468DCFB
S113096061DC91D236D2EDDE45DF3DDF81E094E0FB
S11309702EDF53DF88E693E02ADF8091B4048823D6
S113098009F440C08091B304882309F43BC08091EA
S1130990CE048093D004C6DB8091B404882341F153
S11309A08091B304882321F18091D004813429F407
S11309B08CE692E064DC81E053DC8091D0048234E4
S11309C029F48CE692E05BDC82E04ADC8091D0047E
S11309D0833429F48CE692E052DC84E041DC80919B
S11309E0D004843429F48CE692E049DC88E038DCD5
S11309F08091B404882331F08091B304882311F0EA
S1130A00C4DB5CDF8091D104813009F0B6CF09DD0D
S1130A101092D104E8DE81E094E0D9DEFEDE88E6BF
S1130A2093E0D5DEAACF1F920F920FB60F92112436
S1130A300BB60F922F933F934F935F936F937F93D4
S1130A408F939F93AF93BF93CF93EF93FF9315B877
S1130A508091B204811169C081E08093B20442DEC6
S1130A608093CE049091B404992309F435C0815441
S1130A70843058F4B8DE82E194E0A9DECEDE88E664
S1130A8093E0A5DE81E08093B3048091CE0490EDE1
S1130A90980F9A3008F047C02091C9043091CA04D5
S1130AA0253031050CF4FDD18091C9049091CA041C
S1130AB0059709F038C064D20197A9F51092B404DF
S1130AC01092B30490DE8AE194E081DEA6DE85E232
S1130AD094E07DDEC8D127C090ED980F9A3018F5C8
S1130AE02091C9043091CA04253031050CF4D9D1C0
S1130AF08091C9049091CA040597A9F441D2C82FE2
S1130B00813061F41092B30485E08093810081E028
S1130B1080936F0068DE8DE294E059DEC23019F4F0
S1130B2081E08093D1048FD105C01092B2048FE08C
S1130B3080930801FF91EF91CF91BF91AF919F9165
S1130B408F917F916F915F914F913F912F910F9072
S1130B500BBE0F900FBE0F901F9018951F920F920F
S1130B600FB60F9211240BB60F922F933F934F930E
S1130B705F936F937F938F939F93AF93BF93EF9301
S1130B80FF938091C1049091C20484309105A9F42B
S1130B902ADE8EE394E01BDE40DE88E693E017DE77
S1130BA081E08093B4041092810010926F0086BBA0
S1130BB01092C2041092C10405C001969093C2041D
S1130BC08093C104FF91EF91BF91AF919F918F9159
S1130BD07F916F915F914F913F912F910F900BBE39
S1130BE00F900FBE0F901F9018951F920F920FB683
S1130BF00F9211240BB60F922F933F934F935F9351
S1130C006F937F938F939F93AF93BF93EF93FF93D0
S1130C108091BA049091BB048D30910559F41092DF
S1130C20BB041092BA048091BC048F5F8093BC040F
S1130C30ACD005C001969093BB048093BA04FF9195
S1130C40EF91BF91AF919F918F917F916F915F9140
S1130C504F913F912F910F900BBE0F900FBE0F90AD
S1130C601F9018951F920F920FB60F9211240BB676
S1130C700F921F932F933F934F935F936F937F93A1
S1130C808F939F93AF93BF93CF93DF93EF93FF9390
S1130C90F0DA8335E9F38834D1F4EBDA182FE9DAA2
S1130CA0D82FE7DAC82F63D01093BE04D093BD04C5
S1130CB0C093BC048091B5049091B604892B19F4B7
S1130CC08FE693E0DCDA1092B6041092B504FF913B
S1130CD0EF91DF91CF91BF91AF919F918F917F91D0
S1130CE06F915F914F913F912F911F910F900BBE88
S1130CF00F900FBE0F901F9018951F920F920FB672
S1130D000F9211240BB60F922F933F934F935F933F
S1130D106F937F938F939F93AF93BF93EF93FF93BF
S1130D208091BF049091C0048330910541F41092E6
S1130D30C0041092BF048EE293E0A1DA05C00196CC
S1130D409093C0048093BF04FF91EF91BF91AF9142
S1130D509F918F917F916F915F914F913F912F91CF
S1130D600F900BBE0F900FBE0F901F9018957894A4
S1130D701092900085E0809391001092950010925B
S1130D80940081E08093710008958091BC048C33B9
S1130D9039F48091BD048F5F8093BD041092BC042C
S1130DA08091BD04883149F48091BE048F5F8093A3
S1130DB0BE041092BD041092BC048091BE048F3115
S1130DC031F41092BE041092BD041092BC042BCDD9
S1130DD008957894109280001092850010928400F7
S1130DE081E080936F0086BB08951092200181E01A
S1130DF08093210120EF38ED3093250120932401C5
S1130E008ABBD09BFECF08951092200181E080938D
S1130E10210120EE31EB30932501209324018ABB7C
S1130E20D09BFECF08951092200183E0809321018E
S1130E308CED9BE0909325018093240181E08ABB93
S1130E40D09BFECF08951092200183E0809321016E
S1130E5080EB9CE3909325018093240181E08ABB7D
S1130E60D09BFECF08951092200184E0809321014D
S1130E708CED9BE0909325018093240181E08ABB53
S1130E80D09BFECF089578941092A00085E08093C3
S1130E90A1001092A5001092A40081E0809372003A
S1130EA00895E091C904F091CA04ED53FB4F808387
S1130EB08AE25BDC8091C9049091CA040196909304
S1130EC0CA048093C904089580E090E005C0FC0141
S1130ED0ED53FB4F1082019685309105C4F31092B7
S1130EE0CA041092C9040DC005975CF4FBDB80931F
S1130EF0CE04A9DFA8DF8FE0809308018091CE049F
S1130F00D0DF8091C9049091CA048530910564F3BF
S1130F1083EC94E0089569E272E083EC94E075D088
S1130F20892BF9F06FE272E083EC94E06ED0892BA8
S1130F30D9F065E372E083EC94E067D0892BB9F0D3
S1130F4063E272E083EC94E060D0892B99F06BE368
S1130F5072E083EC94E059D0892B79F489E694E02B
S1130F6008958BE494E0089584E594E008958DE574
S1130F7094E0089581E694E0089581E794E008956B
S1130F80CF93DF93C8DF9093CD048093CC0461E7C3
S1130F9074E03BD0EC01892B69F425DC1092CA047F
S1130FA01092C90481E894E012DC37DC88E693E00F
S1130FB00EDC27C018DC1092CA041092C90481E91F
S1130FC094E005DC2ADC61E674E08091CC04909125
S1130FD0CD041BD0892B19F48FE994E050D96DE529
S1130FE074E08091CC049091CD040FD0892B39F416
S1130FF083EA94E0ECDB37DFC2E0D0E002C0C1E07A
S1131000D0E0CE01DF91CF910895FB01DC018D91F9
S1131010019080190110D9F3990B0895FB01DC01AB
S111102001900D920020E1F70895F894FFCF9F
S113102E05000000313131313100313131313100BF
S113103E0101013132334134353642373839432ACE
S113104E30234438393133340031323336390033B6
S113105E32313930003031323637003930313731B0
S113106E00383931333400313233363900333231CA
S113107E393000303132363700393031373100648F
S113108E6174613A20002A2053454E48415300238F
S113109E204D414953204F50434F4553002A20457C
S11310AE535441444F205553554152494F002A2021
S11310BE504544495220484F524153002A2000487B
S11310CE41420044455300204D4F444F204E4F544F
S11310DE0023205341495200312F32202D205553E5
S11310EE554152494F312F32002A202D2041444D73
S11310FE0031202D2000205553554152494F3100C7
S113110E32202D2000205553554152494F32202074
S113111E002A2052455345542053454E484153000E
S113112E232054524F4341522053454E48415300BD
S113113E524553455441522053454E4841533F0066
S113114E2A202D2053494D202023202D204E414F5F
S113115E00202020202053454E484153202020209B
S113116E20002020444956455247454E54455320AD
S113117E2020004E4F56412053454E48413A0052CE
S113118E455049544120412053454E48413A00416F
S113119E48004D4F444F204E4F5455524E4F204F02
S11311AE4E0073656E68613A004D4F444F204E4FAA
S11311BE5455524E4F204F4646002A202D20414C66
S11311CE41524D452046414C534F0023202D204D76
S11311DE414953204F50434F4553002A20496E74C2
S11311EE7275736F206C6F63616C002320496E7689
S11311FE616469646F004D4F5449564F20444F202B
S113120E414C41524D450043415553413A205349B7
S113121E4E414C2000414D4100414D4900414D434A
S113122E002D2D2D414C41524D4943524F532D2DDE
S113123E2D00494E545255534F00414C41524D4589
S113124E204F46460053454E48413A2000415449EA
S113125E56414E444F2053495354454D4100414C41
S113126E41524D4520415449564F00757375617274
S113127E696F31007573756172696F320061646DE7
S113128E0063656E7472616C00696E747275736F4F
S113129E0073656E686120696E636F727265746146
S11312AE0053454E484120494E434F5252455441F6
S11312BE0053454E484120434F525245544100413C
S11312CE4D560042454D2D56494E444F2041444DF6
S10512DE00000A
S9030000FC
