S01000006C63645F64616C652E73726563EC
S113000071C000008EC000008CC000008AC00000D7
S113001088C0000086C0000084C0000082C00000C8
S113002080C000007EC000007CC00000E3C300006C
S113003078C0000076C0000074C0000072C00000E8
S113004070C000006EC000006CC000006AC00000F8
S113005068C4000066C0000064C0000062C0000004
S113006060C00000ECC400005CC000005AC0000086
S113007058C0000056C0000054C0000052C0000028
S113008050C000004EC000004CC0000091C40000ED
S113009048C0000046C0000044C0000042C0000048
S11300A040C000003EC000003CC000003AC0000058
S11300B038C0000036C0000034C0000032C0000068
S11300C030C000002EC000002CC000002AC0000078
S11300D028C0000026C0000024C0000022C0000088
S11300E020C0000011241FBECFEFD1E2DEBFCDBF80
S11300F000E00CBF14E0A0E0B2E0EAEEFCE000E0B7
S11301000BBF02C007900D92A230B107D9F724E0CB
S1130110A2E0B4E001C01D92A431B207E1F73DD3DF
S1130120E2C56ECFCF92DF92EF92FF92C12CD12C19
S1130130760111C080910404882341F08091030466
S1130140882321F0E7D485B1805885B98FEFC81A88
S1130150D80AE80AF80A8091000290910102A0915D
S11301600202B0910302880F991FAA1FBB1F880FB8
S1130170991FAA1FBB1FC816D906EA06FB06D4F2AC
S1130180FF90EF90DF90CF900895CF92DF92EF929F
S1130190FF923AC080910404882349F080910304BB
S11301A0882329F0A8D495B180E4892785B98FEFF5
S11301B0C81AD80AE80AF80A03C0C12CD12C76015F
S11301C080E9C81681E0D806E104F1041CF3C12CCF
S11301D0D12C760112C080910404882349F08091C7
S11301E00304882329F078D495B180E4892785B95C
S11301F08FEFC81AD80AE80AF80A80E2C81683E022
S1130200D806E104F1043CF380910404882321F02E
S1130210809103048111D1CFFF90EF90DF90CF90B4
S11302200895E1ECF0E0808180688083089583E3A1
S113023090E09093C5008093C400E1ECF0E08081ED
S11302408861808386E08093C200EBCF089580911B
S1130250C000807208958091C00080780895CF9383
S1130260C82FF5DF8823E9F3C093C600CF91089522
S1130270F2DF8823E9F38091C60008950F931F935A
S1130280CF938C01C0E002C0EADFCF5FF801EC0F2E
S1130290F11D80818111F8CFCF911F910F910895A5
S11302A05CD280E692E04DD272D289E692E049C2F5
S11302B0089553D287E792E044D269D289E692E066
S11302C040C208954AD288E892E03BD260D289E6DF
S11302D092E037C2089541D286E992E032D2809109
S11302E01102811104C089E992E02BD203C08DE987
S11302F092E027D281EA92E024D249D28BEA92E0BA
S113030020C208952AD282EB92E01BD240D283EC21
S113031092E017C2089521D28BEC92E012D2809120
S11303201302811104C089E992E00BD203C08DE964
S113033092E007D280ED92E004D229D28AED92E0D5
S113034000D280911202811104C089E992E0F9D1AE
S113035003C08DE992E0F5D18FED92E0F2C10895EA
S1130360FCD18BEE92E0EDD112D28AEF92E0E9C19A
S11303700895F3D18AE093E0E4D109D28AE193E0CD
S1130380E0C10895EAD18BE293E0DBD100D28CE3A3
S113039093E0D7C10895E1D18DE493E0D2D1F7C1C0
S11303A00895DBD189E593E0CCD1F1C10895CF93D1
S11303B0D1D3D0D375DF1092100281E080936D0009
S11303C0D1C04AD1809306048A3209F07EC0C8DFC6
S11303D01092060441D1809306048A32F1F4C9DFF5
S11303E01092060439D1809306048A3281F468E4B9
S11303F072E08AE292E070D46EE472E080E392E00C
S11304006BD464E572E086E392E066D402C0833282
S113041049F746DF10920604A5C08332D9F672DF8D
S11304201092060419D1809306049FEC980F923021
S113043010F08A32B9F71092050419C0ACDFADD3BD
S1130440BC018AE092E048D4ACDFA7D3BC0184E0CD
S113045092E042D464E072E08AE092E034D4892BE2
S113046021F481E08093050402C08CDF73D3809172
S11304700504882319F3C0910604C13329F46AE002
S113048072E08AE292E028D4C23329F46AE072E08E
S113049080E392E021D4CA3229F46AE072E086E370
S11304A092E01AD480E090E005C0FC01E75FFB4FC6
S11304B01082019685309105C4F3109210041092B5
S11304C00F04EEDE109206044DC0833209F04AC0D8
S11304D0F0DE10920604C0D0809306048A32E9F458
S11304E01ADF10920604B8D080930604813341F4D5
S11304F081E090911302911180E08093130209C06E
S1130500823389F781E090911202911180E0809307
S11305101202C6DE1092060425C08332E1F6D2DE52
S11305201092060499D0809306048A32C1F0833273
S1130530C9F7D1DE109206048FD0809306048A3264
S113054041F481E090911102911180E080931102B5
S113055006C0833289F781E080931002FED0A0DECA
S11305601092060480911002882309F42ACF8FE0A8
S113057080936D00CF9108959FE790930801209197
S1130580060130E0082E02C0359527950A94E2F75B
S113059020FD05C0FB01EC5EFD4F808108959FEBBB
S11305A0909308012091060130E0082E02C0359591
S11305B027950A94E2F720FD05C0FB01EC5EFD4F90
S11305C0848108959FED909308012091060130E005
S11305D0082E02C0359527950A94E2F720FD05C040
S11305E0FB01EC5EFD4F808508959FEE909308011A
S11305F02091060130E0A90102C0559547958A95DE
S1130600E2F740FD05C0FB01EC5EFD4F84850895D3
S113061080E00895873031F460E070E083E090E09A
S1130620ABCF08958B3031F461E070E082E090E06C
S1130630A3CF08958D3031F462E070E081E090E062
S11306409BCF08958E3031F463E070E080E090E059
S113065093CF089580E00895CF93DF938FE0809344
S11306600801809106018F30E1F3C6E0D1E0888172
S113067080931304CFDF809311045CD28FE08093C6
S11306800801888180931304C5DF909111048913B4
S113069090E0892FDF91CF91089592E094BD87BDBA
S11306A095BB089516BC82E085BB81E085BDA99BFE
S11306B0FECF15BC08958FEF81B980EE87B90895F8
S11306C08FEFEBDF88B1806488B9ECDFEBDFEADF22
S11306D088B18F7B88B9E6DFE5DFE4CF0895CF9357
S11306E0C82F8FEFDADF88B1806888B98C2F807FBC
S11306F082B9E6DFD7DFD6DFD5DF20E1C29FC001B4
S1130700112482B9DDDFCEDFCDDFCCDFCF910895B8
S1130710CF93C82F8FEFC1DF88B18F7788B98C2F23
S1130720807F82B9CDDFBEDFBDDFBCDF20E1C29FA9
S1130730C001112482B9C4DFB5DFB4DFB3DFCF91C8
S11307400895CF93DF93EC0102C0C9DF219688811D
S11307508111FBCFDF91CF91089581E0D9DFA2DF32
S1130760A1DFA0DFF7C1089588B18F7D88B988B172
S11307708F7788B988E282B9A3DF94DF93DF92DFB1
S113078086E0C6DF84E1C4DF8EE0C2CF089580EC4A
S1130790BFDF88DF87DF86CF08958FEF84B915B870
S11307A080EF809307018FE080930801E8E6F0E092
S11307B0808184608083EDE6F0E080818F608083B7
S11307C0789435DD2EDD7CD176DFCEDFC6DF89E699
S11307D093E0B7DFDCDF82E693E0B3DF80910404CB
S11307E08823E1F3809103048823C1F39BDCCDDCEF
S11307F015B8F4CF1F920F920FB60F9211240BB6B7
S11308000F922F933F934F935F936F937F938F93A5
S11308109F93AF93BF93EF93FF9315B88091020416
S1130820811167C081E08093020416DF8093120473
S113083090910404992309F439C08154843058F404
S11308408CDF8AE793E07DDFA2DF82E693E079DF45
S113085081E0809303048091120490ED980F9A3004
S113086008F045C020910F04309110042530310563
S11308700CF480D180910F0490911004059709F035
S113088036C0E7D1019799F510920404109203043D
S113089064DF82E893E055DF5DD15FDF89E693E0B2
S11308A050DF75DF82E693E04CDF21C090ED980FB6
S11308B09A30E8F420910F0430911004253031056A
S11308C00CF458D180910F0490911004059779F499
S11308D0C0D1019761F41092030485E080938100F4
S11308E081E080936F0039DF8DE893E02ADF22D125
S11308F005C0109202048FE080930801FF91EF91EC
S1130900BF91AF919F918F917F916F915F914F9123
S11309103F912F910F900BBE0F900FBE0F901F9021
S113092018951F920F920FB60F9211240BB60F92C7
S11309302F933F934F935F936F937F938F939F93E3
S1130940AF93BF93EF93FF938091070490910804B2
S113095083319105A9F401DF8EE993E0F2DE17DF1C
S113096082E693E0EEDE81E080930404109281003D
S113097010926F0086BB109208041092070405C001
S113098001969093080480930704FF91EF91BF911F
S1130990AF919F918F917F916F915F914F913F9113
S11309A02F910F900BBE0F900FBE0F901F901895B4
S11309B01F920F920FB60F9211240BB60F922F9322
S11309C03F934F935F936F937F938F939F93AF93D3
S11309D0BF93EF93FF9380910704909108048331B0
S11309E09105A9F4BADE8EE993E0ABDED0DE82E6AF
S11309F093E0A7DE81E080930404109281001092BA
S1130A006F0086BB109208041092070405C001967B
S1130A109093080480930704FF91EF91BF91AF91E5
S1130A209F918F917F916F915F914F913F912F9102
S1130A300F900BBE0F900FBE0F901F9018951F9232
S1130A400F920FB60F9211240BB60F921F932F9390
S1130A503F934F935F936F937F938F939F93AF9342
S1130A60BF93CF93DF93EF93FF9302DC8335E9F3D6
S1130A70883481F4FDDB182FFBDBD82FF9DBC82F7A
S1130A806CDE812F2CDE8D2F2ADE8C2F28DE8BEA64
S1130A9093E0F4DBFF91EF91DF91CF91BF91AF91A0
S1130AA09F918F917F916F915F914F913F912F9182
S1130AB01F910F900BBE0F900FBE0F901F901895B3
S1130AC0789410928000109285001092840081E046
S1130AD080936F0086BB08951092200181E080937B
S1130AE0210120EF38ED30932501209324018ABBA6
S1130AF0D09BFECF08951092200181E080932101C4
S1130B0020EE31EB30932501209324018ABBD09B46
S1130B10FECF08951092200183E0809321018CED93
S1130B209BE0909325018093240181E08ABBD09BB4
S1130B30FECF08951092200183E08093210180EB81
S1130B409CE3909325018093240181E08ABBD09B90
S1130B50FECF08951092200184E0809321018CED52
S1130B609BE0909325018093240181E08ABBD09B74
S1130B70FECF0895E0910F04F0911004E75FFB4F5E
S1130B8080838AE2ACDD80910F0490911004019679
S1130B909093100480930F04089580E090E005C0C2
S1130BA0FC01E75FFB4F1082019685309105C4F389
S1130BB01092100410920F040DC005975CF44CDDE4
S1130BC080931204B7DFB6DF8FE080930801809131
S1130BD01204D0DF80910F049091100485309105A8
S1130BE064F389E094E008956AE272E089E094E0B5
S1130BF06AD0892BF9F060E372E089E094E063D075
S1130C00892BD9F066E372E089E094E05CD0892B0B
S1130C10B9F064E272E089E094E055D0892B99F050
S1130C206CE372E089E094E04ED0892B79F48CEC8B
S1130C3093E008958EEA93E0089587EB93E0089596
S1130C4080EC93E0089584EC93E0089584ED93E0C0
S1130C5008950F931F93CF93DF93C6DF8C0164ED48
S1130C6073E031D0EC01892B69F477DD1092100424
S1130C7010920F0484EE93E064DD89DD82E693E054
S1130C8060DD1BC06ADD1092100410920F0484EF23
S1130C9093E057DD60EC73E0C80115D0EC01892BBB
S1130CA051F485DB5ADD89E693E04BDD70DD82E6A5
S1130CB093E047DD02C0C1E0D0E0CE01DF91CF91E7
S1130CC01F910F910895FB01DC018D910190801912
S1130CD00110D9F3990B0895FB01DC0101900D92E9
S10D0CE00020E1F70895F894FFCF17
S1130CEA19000000313131313100313131313100F3
S1130CFA010101013132334134353642373839433F
S1130D0A2A30234438393133340031323336390006
S1130D1A33323139300030313236370039303137F5
S1130D2A3100383931333400313233363900333211
S1130D3A3139300030313236370039303137310009
S1130D4A2A2053454E4841530023204D41495320FC
S1130D5A4F50434F4553002A2045535441444F2092
S1130D6A5553554152494F002A205045444952206F
S1130D7A484F524153002A200048414200444553F7
S1130D8A00204D4F444F204E4F54002320534149D5
S1130D9A5200312F32202D205553554152494F319B
S1130DAA2F32002A202D2041444D0031202D2000CD
S1130DBA205553554152494F310032202D200020ED
S1130DCA5553554152494F322020002A2052455347
S1130DDA45542053454E48415300232054524F430F
S1130DEA41522053454E48415300524553455441BC
S1130DFA522053454E4841533F002A202D2053493F
S1130E0A4D202023202D204E414F00202020202039
S1130E1A53454E4841532020202020002020444995
S1130E2A56455247454E544553202020004E4F56AE
S1130E3A412053454E48413A0052455049544120B5
S1130E4A412053454E48413A002D2D2D414C4152E3
S1130E5A4D4943524F532D2D2D00494E545255534B
S1130E6A4F00414C41524D45204F4646004154499A
S1130E7A56414E444F2053495354454D4100414C29
S1130E8A41524D4520415449564F0041480075731B
S1130E9A756172696F31007573756172696F3200B9
S1130EAA61646D0063656E7472616C00696E74725C
S1130EBA75736F0073656E686120696E636F727211
S1130ECA6574610053454E484120494E434F52527E
S1130EDA4554410053454E484120434F52524554CC
S1050EEA4100C1
S9030000FC
