:1000000071C000008EC000008CC000008AC00000DB
:1000100088C0000086C0000084C0000082C00000CC
:1000200080C000007EC000007CC00000C8C400008A
:1000300078C0000076C0000074C0000072C00000EC
:1000400070C000006EC000006CC000006AC00000FC
:100050004BC5000066C0000064C0000062C0000024
:1000600060C00000C5C500005CC000005AC00000B0
:1000700058C0000056C0000054C0000052C000002C
:1000800050C000004EC000004CC0000074C500000D
:1000900048C0000046C0000044C0000042C000004C
:1000A00040C000003EC000003CC000003AC000005C
:1000B00038C00000E8C5000034C0000032C00000B5
:1000C00030C000002EC000002CC000002AC000007C
:1000D00028C0000026C0000024C0000022C000008C
:1000E00020C0000011241FBECFEFD1E2DEBFCDBF84
:1000F00000E00CBF14E0A0E0B2E0E8EBFFE000E0BD
:100100000BBF02C007900D92A238B107D9F724E0C7
:10011000A2E8B4E001C01D92A23AB207E1F7D6D33B
:1001200049C76ECFCF92DF92EF92FF92C12CD12CB4
:10013000760111C080918404882341F0809183046A
:10014000882321F035D685B1805885B98FEFC81A3C
:10015000D80AE80AF80A8091000290910102A09161
:100160000202B0910302880F991FAA1FBB1F880FBC
:10017000991FAA1FBB1FC816D906EA06FB06D4F2B0
:10018000FF90EF90DF90CF900895CF92DF92EF92A3
:10019000FF923AC080918404882349F080918304BF
:1001A000882329F0F6D595B180E4892785B98FEFAA
:1001B000C81AD80AE80AF80A03C0C12CD12C760163
:1001C00080E9C81681E0D806E104F1041CF3C12CD3
:1001D000D12C760112C080918404882349F080914B
:1001E0008304882329F0C6D595B180E4892785B991
:1001F0008FEFC81AD80AE80AF80A80E2C81683E026
:10020000D806E104F1043CF380918404882321F0B2
:10021000809183048111D1CF15B8FF90EF90DF90CA
:10022000CF900895E1ECF0E08081806880830895AC
:1002300083E390E09093C5008093C400E1ECF0E08C
:1002400080818861808386E08093C200EBCF08952F
:100250008091C000807208958091C00080780895D8
:10026000CF93C82FF5DF8823E9F3C093C600CF9161
:100270000895F2DF8823E9F38091C60008950F9373
:100280001F93CF938C01C0E002C0EADFCF5FF8017B
:10029000EC0FF11D80818111F8CFCF911F910F914B
:1002A00008950F931F93CF93C82F8A30B0F08DEC31
:1002B000C89F812D1124869586958695082F10E07C
:1002C000805D53D226EF2003C001219F900D1124A1
:1002D0008C0F911D805D49D205C080E346D280E33A
:1002E0008C0F43D2CF911F910F9108957CD28FE54F
:1002F00092E06DD280918E04D4DF8DE693E067D2D8
:1003000080918D04CEDF8DE693E061D280918C04E4
:10031000C8CF089568D286E692E059D27ED28FE6A1
:1003200092E055C208955FD28DE792E050D275D227
:100330008FE692E04CC2089556D28EE892E047D202
:100340006CD28FE692E043C208954DD28CE992E0E0
:100350003ED280918804811104C08FE992E037D2A7
:1003600003C083EA92E033D287EA92E030D255D2DA
:1003700081EB92E02CC2089536D288EB92E027D22E
:100380004CD289EC92E023C208952DD281ED92E007
:100390001ED280911202811104C08FE992E017D21F
:1003A00003C083EA92E013D286ED92E010D235D2F8
:1003B00080EE92E00CD280911102811104C08FE98D
:1003C00092E005D203C083EA92E001D285EE92E08A
:1003D000FEC1089508D281EF92E0F9D11ED280E0EB
:1003E00093E0F5C10895FFD180E193E0F0D115D2FB
:1003F00080E293E0ECC10895F6D181E393E0E7D188
:100400000CD282E493E0E3C10895EDD183E593E05B
:10041000DED103C20895E7D18FE593E0D8D1FDC1C5
:100420000895CF9377DF1092100281E080936D00E2
:10043000DFC058D1809389048A3209F07EC0CADFB8
:10044000109289044FD1809389048A32F1F4CBDF72
:100450001092890447D1809389048A3281F467E439
:1004600072E089E292E09FD56DE472E08FE292E063
:100470009AD563E572E085E392E095D502C08332B8
:1004800049F748DF10928904B3C08332D9F674DF8C
:100490001092890427D1809389049FEC980F9230A1
:1004A00010F08A32B9F71092870419C0AEDFD1D4A8
:1004B000BC018AE092E077D5AEDFCBD4BC0184E00A
:1004C00092E071D564E072E08AE092E063D5892B16
:1004D00021F481E08093870402C08EDF89D480916B
:1004E0008704882319F3C0918904C13329F46AE091
:1004F00072E089E292E057D5C23329F46AE072E0F3
:100500008FE292E050D5CA3229F46AE072E085E3C6
:1005100092E049D580E090E005C0FC01ED56FB4F2C
:100520001082019685309105C4F310929A041092BE
:100530009904F0DE109289045BC0833209F058C040
:10054000F2DE10928904CED0809389048A32E9F4D5
:100550001CDF10928904C6D080938904813341F452
:1005600081E090911202911180E08093120209C003
:10057000823389F781E090911102911180E080939C
:100580001102C8DE1092890433C08332E1F6D4DE52
:1005900010928904A7D0809389048A3271F481E093
:1005A00090E090938604809385048FE693E067DE65
:1005B000FFD39CDE1DD41CD418C0833259F7C5DE8E
:1005C000109289048FD0809389048A3241F481E0AB
:1005D00090918804911180E08093880406C0833252
:1005E00089F781E080931002FED094DE1092890496
:1005F00080911002882309F41CCF8FE080936D0056
:10060000CF9108959FE7909308012091060130E073
:10061000082E02C0359527950A94E2F720FD05C003
:10062000FB01ED5EFD4F808108959FEB90930801E3
:100630002091060130E0082E02C0359527950A94D6
:10064000E2F720FD05C0FB01ED5EFD4F84810895BA
:100650009FED909308012091060130E0082E02C022
:10066000359527950A94E2F720FD05C0FB01ED5E64
:10067000FD4F808508959FEE90930801209106011B
:1006800030E0A90102C0559547958A95E2F740FDF3
:1006900005C0FB01ED5EFD4F8485089580E008955F
:1006A000873031F460E070E083E090E0ABCF0895F4
:1006B0008B3031F461E070E082E090E0A3CF0895E8
:1006C0008D3031F462E070E081E090E09BCF0895DE
:1006D0008E3031F463E070E080E090E093CF0895D5
:1006E00080E00895CF93DF938FE08093080180919D
:1006F00006018F30E1F3C6E0D1E0888180939F044A
:10070000CFDF80939B0464D38FE0809308018881BE
:1007100080939F04C5DF90919B04891390E0892FFB
:10072000DF91CF91089592E094BD87BD95BB089568
:1007300016BC82E085BB81E085BDA99BFECF15BCC0
:1007400008958FEF81B980EE87B908958FEFEBDFC1
:1007500088B1806488B9ECDFEBDFEADF88B18F7B9A
:1007600088B9E6DFE5DFE4CF0895CF93C82F8FEF98
:10077000DADF88B1806888B98C2F807F82B9E6DFA4
:10078000D7DFD6DFD5DF20E1C29FC001112482B9B7
:10079000DDDFCEDFCDDFCCDFCF910895CF93C82F43
:1007A0008FEFC1DF88B18F7788B98C2F807F82B9B6
:1007B000CDDFBEDFBDDFBCDF20E1C29FC001112461
:1007C00082B9C4DFB5DFB4DFB3DFCF910895CF9333
:1007D000DF93EC0102C0C9DF219688818111FBCF34
:1007E000DF91CF91089581E0D9DFA2DFA1DFA0DF03
:1007F000FFC2089588B18F7D88B988B18F7788B995
:1008000088E282B9A3DF94DF93DF92DF86E0C6DF60
:1008100084E1C4DF8EE0C2CF089580ECBFDF88DFC3
:1008200087DF86CF0895DFDF82E793E0D0DFF5DF53
:1008300083E893E0CCCF0895D6DF83E993E0C7DF68
:10084000ECDF83EA93E0C3CF0895CDDF8EEA93E037
:10085000BECF08958FEB93E0BADF80EA94E0B7DF74
:10086000DCDF44DDC5D2C4D2C3D2EFDFC1D2C0D2F7
:100870001092890481E080936D00D5DF33DF80938F
:1008800089048A3221F48DEC93E0F9DC13C08332C1
:10089000A9F710928904D0DF25DF809389048A327A
:1008A00021F481ED93E0EBDC05C08332A9F785EDFF
:1008B00093E0E5DC98DF89ED93E089DFAEDF88E641
:1008C00093E085DF8FE080936D000895109284049B
:1008D0001092A1048FEF84B915B880EF80930701BF
:1008E0009FE090930801E8E6F0E0808184608083D7
:1008F00090936D0078949CDC95DC8AD22FD221DF16
:1009000079DF71DF89ED93E062DF87DF88E693E0CE
:100910005EDF80918404882309F440C080918304C1
:10092000882309F43BC080919E048093A004FADBE5
:1009300080918404882341F180918304882321F1EC
:100940008091A004813429F48CE692E098DC81E067
:1009500087DC8091A004823429F48CE692E08FDC5D
:1009600082E07EDC8091A004833429F48CE692E05E
:1009700086DC84E075DC8091A004843429F48CE664
:1009800092E07DDC88E06CDC80918404882331F087
:1009900080918304882311F0F8DB5CDF8091A1044F
:1009A000813009F0B6CF3DDD1092A1041CDF89ED46
:1009B00093E00DDF32DF88E693E009DFAACF1F92D4
:1009C0000F920FB60F9211240BB60F922F933F93F5
:1009D0004F935F936F937F938F939F93AF93BF9347
:1009E000CF93EF93FF9315B880918204811163C078
:1009F00081E08093820476DE80939E04909184044B
:100A0000992381F18154843058F4EDDE8AEE93E02D
:100A1000DEDE03DF88E693E0DADE81E080938304A4
:100A200080919E0490ED980F9A3008F042C020917A
:100A3000990430919A04253031050CF4F7D1809156
:100A4000990490919A040597A1F55FD2019789F5D1
:100A50001092840410928304C6DE82EF93E0B7DE26
:100A6000C7D127C090ED980F9A3018F520919904BE
:100A700030919A04253031050CF4D8D18091990435
:100A800090919A040597A9F440D2C82F813061F45F
:100A90001092830485E08093810081E080936F0051
:100AA000A2DE8DEF93E093DEC23019F481E08093F3
:100AB000A1048ED105C0109282048FE080930801BA
:100AC000FF91EF91CF91BF91AF919F918F917F91C6
:100AD0006F915F914F913F912F910F900BBE0F90AF
:100AE0000FBE0F901F9018951F920F920FB60F9286
:100AF00011240BB60F922F933F934F935F936F93F5
:100B00007F938F939F93AF93BF93EF93FF938091C6
:100B100091049091920484309105A9F464DE8EE0F2
:100B200094E055DE7ADE88E693E051DE81E0809342
:100B300084041092810010926F0086BB1092920480
:100B40001092910405C001969093920480939104B1
:100B5000FF91EF91BF91AF919F918F917F916F9195
:100B60005F914F913F912F910F900BBE0F900FBE51
:100B70000F901F9018951F920F920FB60F9211248D
:100B80000BB60F922F933F934F935F936F937F9387
:100B90008F939F93AF93BF93EF93FF9380918A04BA
:100BA00090918B048D30910559F410928B04109222
:100BB0008A0480918C048F5F80938C04ACD005C034
:100BC000019690938B0480938A04FF91EF91BF91DB
:100BD000AF919F918F917F916F915F914F913F91D5
:100BE0002F910F900BBE0F900FBE0F901F90189576
:100BF0001F920F920FB60F9211240BB60F921F93F4
:100C00002F933F934F935F936F937F938F939F9314
:100C1000AF93BF93CF93DF93EF93FF932ADB83359B
:100C2000E9F38834D1F425DB182F23DBD82F21DB1F
:100C3000C82F63D010938E04D0938D04C0938C047E
:100C40008091850490918604892B19F48FE693E0B6
:100C500016DB1092860410928504FF91EF91DF91CC
:100C6000CF91BF91AF919F918F917F916F915F9144
:100C70004F913F912F911F910F900BBE0F900FBE80
:100C80000F901F9018951F920F920FB60F9211247C
:100C90000BB60F922F933F934F935F936F937F9376
:100CA0008F939F93AF93BF93EF93FF9380918F04A4
:100CB000909190048330910541F410929004109229
:100CC0008F048EE293E0DBDA05C0019690939004E6
:100CD00080938F04FF91EF91BF91AF919F918F917E
:100CE0007F916F915F914F913F912F910F900BBE2C
:100CF0000F900FBE0F901F9018957894109290004F
:100D000085E080939100109295001092940081E00C
:100D100080937100089580918C048C3339F4809114
:100D20008D048F5F80938D0410928C0480918D04CC
:100D3000883149F480918E048F5F80938E041092E5
:100D40008D0410928C0480918E048F3131F41092B6
:100D50008E0410928D0410928C0408957894109251
:100D60008000109285001092840081E080936F00D3
:100D700086BB08951092200181E08093210120EF2D
:100D800038ED30932501209324018ABBD09BFECF00
:100D900008951092200181E08093210120EE31EB33
:100DA00030932501209324018ABBD09BFECF089568
:100DB0001092200183E0809321018CED9BE09093C1
:100DC00025018093240181E08ABBD09BFECF08954A
:100DD0001092200183E08093210180EB9CE39093AB
:100DE00025018093240181E08ABBD09BFECF08952A
:100DF0001092200184E0809321018CED9BE0909380
:100E000025018093240181E08ABBD09BFECF089509
:100E100078941092A00085E08093A1001092A50024
:100E20001092A40081E0809372000895E0919904EB
:100E3000F0919A04ED56FB4F80838AE296DC809114
:100E4000990490919A04019690939A04809399043E
:100E5000089580E090E005C0FC01ED56FB4F108244
:100E6000019685309105C4F310929A04109299046A
:100E70000DC005975CF436DC80939E04A9DFA8DFE3
:100E80008FE08093080180919E04D0DF80919904C7
:100E900090919A048530910564F383E994E0089574
:100EA00069E272E083E994E075D0892BF9F06FE292
:100EB00072E083E994E06ED0892BD9F065E372E0AB
:100EC00083E994E067D0892BB9F063E272E083E9AB
:100ED00094E060D0892B99F06BE372E083E994E0B1
:100EE00059D0892B79F489E394E008958BE194E05B
:100EF000089584E294E008958DE294E0089581E3FA
:100F000094E0089581E494E00895CF93DF93C8DFDF
:100F100090939D0480939C0461E474E03BD0EC01C9
:100F2000892B69F460DC10929A041092990481E58F
:100F300094E04DDC72DC88E693E049DC27C053DCAA
:100F400010929A041092990481E694E040DC65DCEA
:100F500061E374E080919C0490919D041BD0892BE7
:100F600019F48FE694E08BD96DE274E080919C04D3
:100F700090919D040FD0892B39F483E794E027DC0E
:100F800037DFC2E0D0E002C0C1E0D0E0CE01DF91A7
:100F9000CF910895FB01DC018D9101908019011022
:100FA000D9F3990B0895FB01DC0101900D9200200B
:080FB000E1F70895F894FFCF6A
:100FB800050000003131313131003131313131003A
:100FC8000101013132334134353642373839432A49
:100FD8003023443839313334003132333639003331
:100FE800323139300030313236370039303137312B
:100FF8000038393133340031323336390033323145
:101008003930003031323637003930313731006409
:101018006174613A20002A2053454E484153002309
:10102800204D414953204F50434F4553002A2045F6
:10103800535441444F205553554152494F002A209B
:10104800504544495220484F524153002A200048F5
:1010580041420044455300204D4F444F204E4F54C9
:101068000023205341495200312F32202D2055535F
:10107800554152494F312F32002A202D2041444DED
:101088000031202D2000205553554152494F310041
:1010980032202D2000205553554152494F322020EF
:1010A800002A2052455345542053454E4841530089
:1010B800232054524F4341522053454E4841530038
:1010C800524553455441522053454E4841533F00E1
:1010D8002A202D2053494D202023202D204E414FDA
:1010E80000202020202053454E4841532020202016
:1010F80020002020444956455247454E5445532028
:101108002020004E4F56412053454E48413A005248
:10111800455049544120412053454E48413A0041E9
:1011280048002A202D20414C41524D452046414C33
:10113800534F0023202D204D414953204F50434FFA
:101148004553002A20496E747275736F206C6F6363
:10115800616C002320496E76616469646F004D4FAD
:101168005449564F20444F20414C41524D4500436D
:10117800415553413A2053494E414C2000414D417D
:1011880000414D4900414D43002D2D2D414C415208
:101198004D4943524F532D2D2D00494E545255530E
:1011A8004F00414C41524D45204F4646004154495D
:1011B80056414E444F2053495354454D4100414CEC
:1011C80041524D4520415449564F0075737561721F
:1011D800696F31007573756172696F320061646D92
:1011E8000063656E7472616C00696E747275736FFA
:1011F8000073656E686120696E636F7272657461F1
:101208000053454E484120494E434F5252455441A0
:101218000053454E484120434F52524554410041E6
:101228004D560042454D2D56494E444F2041444DA0
:021238000000B4
:00000001FF
