:1000000071C000008EC000008CC000008AC00000DB
:1000100088C0000086C0000084C0000082C00000CC
:1000200080C000007EC000007CC00000E4C2000070
:1000300078C0000076C0000074C0000072C00000EC
:1000400070C000006EC000006CC000006AC00000FC
:100050006AC3000066C0000064C0000062C0000007
:1000600060C000005EC000005CC000005AC000001C
:1000700058C0000056C0000054C0000052C000002C
:1000800050C000004EC000004CC000004AC000003C
:1000900048C0000046C0000044C0000042C000004C
:1000A00040C000003EC000003CC000003AC000005C
:1000B00038C000007DC3000034C0000032C0000022
:1000C00030C000002EC000002CC000002AC000007C
:1000D00028C0000026C0000024C0000022C000008C
:1000E00020C0000011241FBECFEFD1E2DEBFCDBF84
:1000F00000E00CBF13E0A0E0B2E0E4E1FBE000E0D0
:100100000BBF02C007900D92A036B107D9F723E0CC
:10011000A0E6B3E001C01D92A837B207E1F73BD2D9
:10012000F7C46ECFCF92DF92EF92FF928FEF84B938
:10013000F7D3C12CD12C760106C014D48FEFC81A86
:10014000D80AE80AF80A8091000290910102A09171
:100150000202B0910302C816D906EA06FB066CF348
:1001600010926A031092A10010927200FF90EF901B
:10017000DF90CF900895C5D381E0809369030895FF
:10018000109269031092A100109272000895E3D1B9
:100190008CE392E0D4D1F9D18CE492E0D0C10895FF
:1001A000DAD18AE592E0CBD1F0D18CE492E0C7C1FC
:1001B0000895D1D18BE692E0C2D1E7D18CE492E0F0
:1001C000BEC10895C8D189E792E0B9D180910B02F0
:1001D000811104C08CE792E0B2D103C080E892E0C4
:1001E000AED184E892E0ABD1D0D18EE892E0A7C145
:1001F0000895B1D185E992E0A2D1C7D186EA92E013
:100200009EC10895A8D18EEA92E099D180910D0205
:10021000811104C08CE792E092D103C080E892E0A3
:100220008ED183EB92E08BD1B0D18DEB92E087D170
:1002300080910C02811104C08CE792E080D103C050
:1002400080E892E07CD182EC92E079C10895CF936E
:1002500089D388D39CDF10920A0281E080936D00DD
:1002600093C00CD1809363038A3209F040C0C1DF90
:100270001092630303D1809363039FEC980F923035
:1002800010F08A32B9F767D18EEC92E058D17DD167
:100290008CD3BC0184E092E034D4C0916303C133B9
:1002A00029F464E072E084E292E02BD4C23329F4B2
:1002B00064E072E08AE292E024D4CA3229F464E075
:1002C00072E080E392E01DD480E090E005C0FC0184
:1002D000E359FC4F1082019685309105C4F31092CA
:1002E00074031092730353DF109263034DC0833283
:1002F00009F04AC055DF10926303C0D080936303B6
:100300008A32E9F47FDF10926303B8D080936303ED
:10031000813341F481E090910D02911180E080934E
:100320000D0209C0823389F781E090910C0291118E
:1003300080E080930C022BDF1092630325C0833290
:10034000E1F637DF1092630399D0809363038A321A
:10035000C1F08332C9F736DF109263038FD08093E8
:1003600063038A3241F481E090910B02911180E0A5
:1003700080930B0206C0833289F781E080930A02E2
:10038000EAD005DF1092630380910A02882309F402
:1003900068CF8FE080936D00CF9108959FE7909391
:1003A00008012091060130E0082E02C035952795FE
:1003B0000A94E2F720FD05C0FB01E25FFD4F80815A
:1003C00008959FEB909308012091060130E0082EDC
:1003D00002C0359527950A94E2F720FD05C0FB0180
:1003E000E25FFD4F848108959FED90930801209175
:1003F000060130E0082E02C0359527950A94E2F7F1
:1004000020FD05C0FB01E25FFD4F808508959FEE52
:10041000909308012091060130E0A90102C0559592
:1004200047958A95E2F740FD05C0FB01E25FFD4F6D
:100430008485089580E00895873031F460E070E0AD
:1004400083E090E0ABCF08958B3031F461E070E051
:1004500082E090E0A3CF08958D3031F462E070E047
:1004600081E090E09BCF08958E3031F463E070E03E
:1004700080E090E093CF089580E008958FE080932E
:100480000801809106018F30E1F38091060180938D
:100490007703D2CF089592E094BD87BD95BB0895B0
:1004A00016BC82E085BB81E085BDA99BFECF15BC53
:1004B00008958FEF81B980EE87B908958FEFEBDF54
:1004C00088B1806488B9ECDFEBDFEADF88B18F7B2D
:1004D00088B9E6DFE5DFE4CF0895CF93C82F8FEF2B
:1004E000DADF88B1806888B98C2F807F82B9E6DF37
:1004F000D7DFD6DFD5DF20E1C29FC001112482B94A
:10050000DDDFCEDFCDDFCCDFCF910895CF93C82FD5
:100510008FEFC1DF88B18F7788B98C2F807F82B948
:10052000CDDFBEDFBDDFBCDF20E1C29FC0011124F3
:1005300082B9C4DFB5DFB4DFB3DFCF910895CF93C5
:10054000DF93EC0102C0C9DF219688818111FBCFC6
:10055000DF91CF91089581E0D9DFA2DFA1DFA0DF95
:1005600001C2089588B18F7D88B988B18F7788B925
:1005700088E282B9A3DF94DF93DF92DF86E0C6DFF3
:1005800084E1C4DF8EE0C2CF089580ECBFDF88DF56
:1005900087DF86CF08958FEF84B915B880EF8093F9
:1005A00007018FE080930801E8E6F0E08081846035
:1005B0008083EDE6F0E080818F608083789493D132
:1005C00078DFD0DFC8DF8AED92E0B9DFDEDF83EDD0
:1005D00092E0B5DF80916203882339F08091610356
:1005E000882319F09FDDC7DDF5CFCADD10927300B7
:1005F00010922101EFCF1F920F920FB60F9211248C
:100600000BB60F922F933F934F935F936F937F930C
:100610008F939F93AF93BF93EF93FF9315B8809100
:100620006003811168C081E08093600327DF8093BD
:10063000760390916203992309F442C08154843077
:1006400058F489DF8BEE92E07ADF9FDF83ED92E052
:1006500076DF81E0809361038091760390ED980FBF
:100660009A3008F046C0209173033091740325300E
:1006700031050CF487D18091730390917403059731
:1006800009F037C0EDD10197A1F5109262031092E5
:1006900061031092810010926F001092720010920C
:1006A000A1006EDD58DF83EF92E049DF5BD153DFBD
:1006B0008AED92E044DF69DF83ED92E040DF19C00C
:1006C00090ED980F9A30A8F4209173033091740341
:1006D000253031050CF456D1809173039091740349
:1006E000059739F4BDD1019721F41092620310925D
:1006F000610328D105C0109260038FE08093080148
:10070000FF91EF91BF91AF919F918F917F916F91E9
:100710005F914F913F912F910F900BBE0F900FBEA5
:100720000F901F9018951F920F920FB60F921124E1
:100730000BB60F922F933F934F935F936F937F93DB
:100740008F939F93AF93BF93EF93FF9380916B032E
:1007500090916C038130910599F4FDDE8EEF92E06B
:10076000EEDE13DF83ED92E0EADE81E08093620348
:100770001092810086BB10926C0310926B0305C02F
:10078000019690936C0380936B03FF91EF91BF915F
:10079000AF919F918F917F916F915F914F913F9119
:1007A0002F910F900BBE0F900FBE0F901F901895BA
:1007B0001F920F920FB60F9211242F933F938F9396
:1007C0009F93AF93BF9380916A03813081F410921D
:1007D000A00083E08093A1008CED9BE09093A500A6
:1007E0008093A40081E089BB85B1805885B9809150
:1007F0006903813009F06CC080916403811133C0BA
:100800001092A00081E08093A10020EE31EB3093A4
:10081000A5002093A40089BB95B180E4892785B900
:100820008091650390916603A0916703B09168037E
:100830000196A11DB11D8093650390936603A0935B
:100840006703B093680380399140A105B10559F45D
:10085000109265031092660310926703109268036A
:1008600081E08093640380916403813089F5109264
:10087000A0008093A10020EF38ED3093A5002093D5
:10088000A40089BB95B180E4892785B9809165036F
:1008900090916603A0916703B09168030196A11D32
:1008A000B11D8093650390936603A0936703B09393
:1008B000680380329340A105B10551F4109265039D
:1008C00010926603109267031092680310926403FB
:1008D000BF91AF919F918F913F912F910F900FBE3C
:1008E0000F901F90189578941092800087E798E6F3
:1008F000909385008093840081E080936F0086BB95
:10090000089578941092A00081E08093A10020EED9
:1009100031EB3093A5002093A400809372000895DA
:1009200078941092A00083E08093A1008CED9BE06E
:100930009093A5008093A40081E08093720080933F
:100940006A0308951092200183E0809321018CEDC9
:100950009BE0909325018093240181E08ABBD09B8A
:10096000FECF08951092200184E0809321018CED48
:100970009BE0909325018093240181E08ABBD09B6A
:10098000FECF0895E0917303F0917403E359FC4F97
:1009900080838AE2A2DD80917303909174030196B3
:1009A0009093740380937303089580E090E005C0F2
:1009B000FC01E359FC4F1082019685309105C4F388
:1009C00010927403109273030CC0059754F456DD13
:1009D00080937603B7DF8FE08093080180917603E0
:1009E000D1DF8091730390917403853091056CF38E
:1009F0008DE693E0089564E272E08DE693E078D0AE
:100A0000892BF9F06AE272E08DE693E071D0892BD0
:100A1000D9F060E372E08DE693E06AD0892BB9F0FB
:100A20006EE172E08DE693E063D0892B99F066E386
:100A300072E08DE693E05CD0892B79F489E293E053
:100A400008958BE093E0089584E193E008958DE1AB
:100A500093E0089581E293E0089581E393E008959F
:100A60000F931F93CF93DF93C6DF8C0161E373E095
:100A70003FD0EC01892B71F46EDD1092740310925B
:100A8000730381E493E05BDD80DD83ED92E057DD6D
:100A900059DF28C060DD109274031092730381E562
:100AA00093E04DDD6DE173E0C80122D0892B29F47C
:100AB000CEDB51DDC1E0D0E015C080916203811131
:100AC00009C085E08093810081E080936F00C1E0E0
:100AD000D0E008C0813021F453DBC1E0D0E002C097
:100AE000C1E0D0E0CE01DF91CF911F910F91089529
:100AF000FB01DC018D91019080190110D9F3990B54
:100B00000895FB01DC0101900D920020E1F70895AA
:040B1000F894FFCF87
:100B14000500000031313131310001010101313270
:100B2400334134353642373839432A30234438394F
:100B34003133340031323336390033323139300015
:100B44003031323637003930313731002A205452AF
:100B54004F4341522053454E4841530023204D41B9
:100B64004953204F50434F4553002A204553544185
:100B7400444F205553554152494F002A2050454473
:100B8400495220484F524153002A20004841420014
:100B940044455300204D4F444F204E4F54002320D2
:100BA4005341495200312F32202D20555355415283
:100BB400494F312F32002A202D2041444D0031204D
:100BC4002D2000205553554152494F310032202DDC
:100BD4002000205553554152494F322020004E4F9A
:100BE40056412053454E48413A002D2D2D414C414C
:100BF400524D4943524F532D2D2D00494E545255B9
:100C0400534F00414C41524D45204F464600414C04
:100C140041524D4520415449564F007573756172D8
:100C2400696F31007573756172696F320061646D4B
:100C34000063656E7472616C00696E747275736FB3
:100C44000073656E686120696E636F7272657461AA
:100C54000053454E484120494E434F52524554415A
:100C64000053454E484120434F52524554410000E1
:00000001FF
